{
  "contractName": "Hasher",
  "abi": [
    {
      "inputs": [
        {
          "internalType": "uint256[2]",
          "name": "_ins",
          "type": "uint256[2]"
        },
        {
          "internalType": "uint256",
          "name": "_k",
          "type": "uint256"
        }
      ],
      "name": "MiMC5Sponge",
      "outputs": [
        {
          "internalType": "uint256",
          "name": "h",
          "type": "uint256"
        }
      ],
      "stateMutability": "view",
      "type": "function",
      "constant": true
    }
  ],
  "bytecode": "0x60806040527f30644e72e131a029b85045b68181585d2833e84879b9709143e1f593f00000015f556040518061028001604052805f81526020017fec28579bc58a91efb198bd9d8154d2c57c8e9c88555feedee4e73c398e631fd281526020017fba46d2eaae7e8be925e3e85777bc4a6ba1173d6542b27fa5e8856dd1f0fe8cd981526020017f523d0a41d52a7ac3173b171482b9198498f8bca4121d515fe3a6089f1abe099f81526020017f4836e070b5f36368022aef05b13fb082b826300b1574657ff90938a190a190d181526020017fac562047d97102501bf293f8e1b86ebdd3ab45667edc718a1c75107edbb4740a81526020017f6a23f73f383741eeaa52cf6abc81b08bffbf53bf4f82c073fb87b68c2339601481526020017facc84c18cfca65e7fec06c67acbc321a70f532f3be76648bf02416ca825a812e81526020017f21eef6810085c207e69b63c29545212779e070f95ae0c190a7ff92260e1fff5081526020017f29f0dd0661dd0bdb3f67574156674297456ed15650a22144769c551953fa7bc481526020017f32244a566120c84e0aa116a85c33b3572c937c6356f91fb917a839af18b89f1b81526020017f4ead1db05418f7c3cb1b43c123fc5f7001744a12db0b85e0ada45d05ad8942bc81526020017f875a287fe1ce7d4e62485ebbcec3d8a364815d503d78feddd475fffde839733081526020017fe45a29a783f221cb9677a8a48a8f8083e4cb0e9e00f6009777e6f35b286d9d5781526020017f361cc0cebb3714f46d093a83fbc4c7c5763852811c09ac93ca726ee75ce47a4781526020017f3c625b39404dfd2a21d142521672eaa4b2629faf52c0918ba4f03de5ae2d31cb81526020017f342289a445713cdbec7a1523f5439493d023d98635184111a1f62f4d606bc5d281526020017fe53f5ffa9807a2151a474e3821b4f16491cfa47bf5ab21001591666ddbd169f781526020017ff55d8321ec0f83832055086e52256ae8022506c4b3271c5ee8af7f668b9627f381526020017f14578d0237b0a6cd387e14a617a4a695b3e0939439eb91b9bd01665ef08cb7bf815250600190601461031992919061032b565b50348015610325575f80fd5b50610386565b826014810192821561035a579160200282015b8281111561035957825182559160200191906001019061033e565b5b509050610367919061036b565b5090565b5b80821115610382575f815f90555060010161036c565b5090565b61048f806103935f395ff3fe608060405234801561000f575f80fd5b5060043610610029575f3560e01c8063d622e5a41461002d575b5f80fd5b61004760048036038101906100429190610338565b61005d565b6040516100549190610385565b60405180910390f35b5f805f90505f805b60028160ff1610156100c6575f54806100815761008061039e565b5b868260ff1660028110610097576100966103cb565b5b6020020151840892506100ab8383876100d2565b809350819450505080806100be90610431565b915050610065565b50819250505092915050565b5f805f601490505f8690505f8690505f805f805f5b8760ff168160ff1610156101a4575f54806101055761010461039e565b5b8b870894505f548061011a5761011961039e565b5b60018260ff1660148110610131576101306103cb565b5b0154860894505f54806101475761014661039e565b5b85860993505f548061015c5761015b61039e565b5b84850992505f54806101715761017061039e565b5b85840994508591505f54806101895761018861039e565b5b8588089550819650808061019c90610431565b9150506100e7565b5085985084975050505050505050935093915050565b5f604051905090565b5f80fd5b5f80fd5b5f601f19601f8301169050919050565b7f4e487b71000000000000000000000000000000000000000000000000000000005f52604160045260245ffd5b610211826101cb565b810181811067ffffffffffffffff821117156102305761022f6101db565b5b80604052505050565b5f6102426101ba565b905061024e8282610208565b919050565b5f67ffffffffffffffff82111561026d5761026c6101db565b5b602082029050919050565b5f80fd5b5f819050919050565b61028e8161027c565b8114610298575f80fd5b50565b5f813590506102a981610285565b92915050565b5f6102c16102bc84610253565b610239565b905080602084028301858111156102db576102da610278565b5b835b8181101561030457806102f0888261029b565b8452602084019350506020810190506102dd565b5050509392505050565b5f82601f830112610322576103216101c7565b5b600261032f8482856102af565b91505092915050565b5f806060838503121561034e5761034d6101c3565b5b5f61035b8582860161030e565b925050604061036c8582860161029b565b9150509250929050565b61037f8161027c565b82525050565b5f6020820190506103985f830184610376565b92915050565b7f4e487b71000000000000000000000000000000000000000000000000000000005f52601260045260245ffd5b7f4e487b71000000000000000000000000000000000000000000000000000000005f52603260045260245ffd5b7f4e487b71000000000000000000000000000000000000000000000000000000005f52601160045260245ffd5b5f60ff82169050919050565b5f61043b82610425565b915060ff820361044e5761044d6103f8565b5b60018201905091905056fea264697066735822122057b69642fa47e0c8e86288d9fc1b3bc403bbbe924ff6ac6ae9a0c2fcc556d64d64736f6c63430008150033",
  "immutableReferences": {},
  "source": "// SPDX-License-Identifier: MIT\npragma solidity ^0.8.17;\n\ncontract Hasher {\n    uint256 p = 21888242871839275222246405745257275088548364400416034343698204186575808495617;\n    uint256[20] c = [\n        0,\n        106817110799769433093218245423871844717059833683452559466196112354004638572498,\n        84255324824758778243920689261768054268226603835992097862981564101503393631449,\n        37197502047088319755447032783014359157651485250083660539303816043345813047711,\n        32663483869350569457441108253326666697207255573603065306759678212807797608657,\n        77949981596831327030843275836056163759930345566858706468497257143337701635082,\n        48008708032837997889055358250659021109935598563956572847846081057442579963924,\n        78151704570921477873127137133941054666810713605170453966535534917554089394478,\n        15348534912154501649990460011781534533170346398475899082484059257946895286096,\n        18970395545469280351107608050419345078001347302157351944399526916015227829188,\n        22679761981509195336998531649239086318015246397079256509235559663628925312795,\n        35586271636152612797214292674565595612070971867022205208695270681460796375740,\n        61221530312118325840150771247903849929566155139377953764663614207837924324144,\n        103286633200621620507248023416367379780460418287112807675789453707427940506967,\n        24475696250073834857397447409849709457582056151188669376174099629191337376327,\n        27312551529750852384898501883128611829852368515804657815211432516406859346379,\n        23581290894526212408203595224199706484202370309378983986329426965760228181458,\n        103691616112549261464497394142126612171833073254702145237603537411191373654519,\n        110981869723234407281789291191816098797715721518483276773393741342066687223795,\n        9200945872320684290134711189807383509743942292509394373376250231750977697727\n    ];\n\n    function MiMC5Feistel(uint256 _iL, uint256 _iR, uint256 _k) internal view returns (uint256 oL, uint256 oR) {\n        uint8 nRounds = 20;\n\n        uint256 lastL = _iL;\n        uint256 lastR = _iR;\n\n        uint256 mask;\n        uint256 mask2;\n        uint256 mask4;\n        uint256 temp;\n\n        for (uint8 i = 0; i < nRounds; i++) {\n            mask = addmod(lastR, _k, p);\n            mask = addmod(mask, c[i], p);\n            mask2 = mulmod(mask, mask, p);\n            mask4 = mulmod(mask2, mask2, p);\n            mask = mulmod(mask4, mask, p);\n\n            temp = lastR;\n            lastR = addmod(lastL, mask, p);\n            lastL = temp;\n        }\n\n        oL = lastL;\n        oR = lastR;\n    }\n\n    function MiMC5Sponge(uint256[2] memory _ins, uint256 _k) external view returns (uint256 h) {\n        uint256 lastR = 0;\n        uint256 lastC = 0;\n\n        for (uint8 i = 0; i < _ins.length; i++) {\n            lastR = addmod(lastR, _ins[i], p);\n            (lastR, lastC) = MiMC5Feistel(lastR, lastC, _k);\n        }\n\n        h = lastR;\n    }\n}",
  "sourcePath": "/Users/liqi/Documents/Project/routing_security/VRO/anonymous_voting/contracts/Hasher.sol",
  "compiler": {
    "name": "solc",
    "version": "0.8.21+commit.d9974bed.Emscripten.clang"
  },
  "schemaVersion": "3.4.16",
  "updatedAt": "2024-08-08T01:23:46.419Z",
  "networkType": "ethereum",
  "devdoc": {
    "kind": "dev",
    "methods": {},
    "version": 1
  },
  "userdoc": {
    "kind": "user",
    "methods": {},
    "version": 1
  }
}