{
  "contractName": "MerkleTreeWithHistory",
  "abi": [
    {
      "inputs": [
        {
          "internalType": "uint32",
          "name": "_levels",
          "type": "uint32"
        },
        {
          "internalType": "address",
          "name": "_addr",
          "type": "address"
        }
      ],
      "stateMutability": "nonpayable",
      "type": "constructor"
    },
    {
      "anonymous": false,
      "inputs": [
        {
          "indexed": false,
          "internalType": "string",
          "name": "message",
          "type": "string"
        },
        {
          "indexed": false,
          "internalType": "uint256",
          "name": "value1",
          "type": "uint256"
        },
        {
          "indexed": false,
          "internalType": "uint256",
          "name": "value2",
          "type": "uint256"
        }
      ],
      "name": "Debug",
      "type": "event"
    },
    {
      "inputs": [],
      "name": "FIELD_SIZE",
      "outputs": [
        {
          "internalType": "uint256",
          "name": "",
          "type": "uint256"
        }
      ],
      "stateMutability": "view",
      "type": "function"
    },
    {
      "inputs": [],
      "name": "ROOT_HISTORY_SIZE",
      "outputs": [
        {
          "internalType": "uint32",
          "name": "",
          "type": "uint32"
        }
      ],
      "stateMutability": "view",
      "type": "function"
    },
    {
      "inputs": [],
      "name": "ZERO_VALUE",
      "outputs": [
        {
          "internalType": "uint256",
          "name": "",
          "type": "uint256"
        }
      ],
      "stateMutability": "view",
      "type": "function"
    },
    {
      "inputs": [],
      "name": "currentRootIndex",
      "outputs": [
        {
          "internalType": "uint32",
          "name": "",
          "type": "uint32"
        }
      ],
      "stateMutability": "view",
      "type": "function"
    },
    {
      "inputs": [
        {
          "internalType": "uint256",
          "name": "",
          "type": "uint256"
        }
      ],
      "name": "filledSubtrees",
      "outputs": [
        {
          "internalType": "bytes32",
          "name": "",
          "type": "bytes32"
        }
      ],
      "stateMutability": "view",
      "type": "function"
    },
    {
      "inputs": [],
      "name": "hasher",
      "outputs": [
        {
          "internalType": "contract IHasher",
          "name": "",
          "type": "address"
        }
      ],
      "stateMutability": "view",
      "type": "function"
    },
    {
      "inputs": [],
      "name": "levels",
      "outputs": [
        {
          "internalType": "uint32",
          "name": "",
          "type": "uint32"
        }
      ],
      "stateMutability": "view",
      "type": "function"
    },
    {
      "inputs": [],
      "name": "nextIndex",
      "outputs": [
        {
          "internalType": "uint32",
          "name": "",
          "type": "uint32"
        }
      ],
      "stateMutability": "view",
      "type": "function"
    },
    {
      "inputs": [
        {
          "internalType": "uint256",
          "name": "",
          "type": "uint256"
        }
      ],
      "name": "roots",
      "outputs": [
        {
          "internalType": "bytes32",
          "name": "",
          "type": "bytes32"
        }
      ],
      "stateMutability": "view",
      "type": "function"
    },
    {
      "inputs": [
        {
          "internalType": "uint256",
          "name": "_left",
          "type": "uint256"
        },
        {
          "internalType": "uint256",
          "name": "_right",
          "type": "uint256"
        }
      ],
      "name": "hashLeftRight",
      "outputs": [
        {
          "internalType": "bytes32",
          "name": "",
          "type": "bytes32"
        }
      ],
      "stateMutability": "nonpayable",
      "type": "function"
    },
    {
      "inputs": [
        {
          "internalType": "bytes32",
          "name": "_root",
          "type": "bytes32"
        }
      ],
      "name": "isKnownRoot",
      "outputs": [
        {
          "internalType": "bool",
          "name": "",
          "type": "bool"
        }
      ],
      "stateMutability": "view",
      "type": "function"
    },
    {
      "inputs": [],
      "name": "getLastRoot",
      "outputs": [
        {
          "internalType": "bytes32",
          "name": "",
          "type": "bytes32"
        }
      ],
      "stateMutability": "view",
      "type": "function"
    },
    {
      "inputs": [
        {
          "internalType": "uint256",
          "name": "i",
          "type": "uint256"
        }
      ],
      "name": "zeros",
      "outputs": [
        {
          "internalType": "bytes32",
          "name": "",
          "type": "bytes32"
        }
      ],
      "stateMutability": "pure",
      "type": "function"
    }
  ],
  "bytecode": "0x60a06040525f60035f6101000a81548163ffffffff021916908363ffffffff1602179055505f600360046101000a81548163ffffffff021916908363ffffffff16021790555034801562000051575f80fd5b5060405162001fb238038062001fb2833981810160405281019062000077919062000966565b5f8263ffffffff1611620000c2576040517f08c379a0000000000000000000000000000000000000000000000000000000008152600401620000b99062000a2f565b60405180910390fd5b60208263ffffffff16106200010e576040517f08c379a0000000000000000000000000000000000000000000000000000000008152600401620001059062000a9d565b60405180910390fd5b815f806101000a81548163ffffffff021916908363ffffffff1602179055508073ffffffffffffffffffffffffffffffffffffffff1660808173ffffffffffffffffffffffffffffffffffffffff16815250505f5b8263ffffffff168163ffffffff161015620001c0576200018f8163ffffffff166200020360201b60201c565b60015f8363ffffffff1681526020019081526020015f20819055508080620001b79062000aea565b91505062000163565b50620001e6600183620001d4919062000b1a565b63ffffffff166200020360201b60201c565b60025f8081526020019081526020015f2081905550505062000bc6565b5f80820362000237577f2fe54c60d3acabf3343a35b6eba15db4821b340f76e741e2249685ed4899af6c5f1b9050620008be565b600182036200026b577f256a6135777eee2fd26f54b8b7037a25439d5235caee224154186d2b8a52e31d5f1b9050620008be565b600282036200029f577f1151949895e82ab19924de92c40a3d6f7bcb60d92b00504b8199613683f0c2005f1b9050620008be565b60038203620002d3577f20121ee811489ff8d61f09fb89e313f14959a0f28bb428a20dba6b0b068b3bdb5f1b9050620008be565b6004820362000307577f0a89ca6ffa14cc462cfedb842c30ed221a50a3d6bf022a6a57dc82ab24c157c95f1b9050620008be565b600582036200033b577f24ca05c2b5cd42e890d6be94c68d0689f4f21c9cec9c0f13fe41d566dfb549595f1b9050620008be565b600682036200036f577f1ccb97c932565a92c60156bdba2d08f3bf1377464e025cee765679e604a7315c5f1b9050620008be565b60078203620003a3577f19156fbd7d1a8bf5cba8909367de1b624534ebab4f0f79e003bccdd1b182bdb45f1b9050620008be565b60088203620003d7577f261af8c1f0912e465744641409f622d466c3920ac6e5ff37e36604cb11dfff805f1b9050620008be565b600982036200040a577e58459724ff6ca5a1652fcbc3e82b93895cf08e975b19beab3f54c217d1c0075f1b9050620008be565b600a82036200043e577f1f04ef20dee48d39984d8eabe768a70eafa6310ad20849d4573c3c40c2ad1e305f1b9050620008be565b600b820362000472577f1bea3dec5dab51567ce7e200a30f7ba6d4276aeaa53e2686f962a46c66d511e55f1b9050620008be565b600c8203620004a6577f0ee0f941e2da4b9e31c3ca97a40d8fa9ce68d97c084177071b3cb46cd3372f0f5f1b9050620008be565b600d8203620004da577f1ca9503e8935884501bbaf20be14eb4c46b89772c97b96e3b2ebf3a36a948bbd5f1b9050620008be565b600e82036200050e577f133a80e30697cd55d8f7d4b0965b7be24057ba5dc3da898ee2187232446cb1085f1b9050620008be565b600f820362000542577f13e6d8fc88839ed76e182c2a779af5b2c0da9dd18c90427a644f7e148a6253b65f1b9050620008be565b6010820362000576577f1eb16b057a477f4bc8f572ea6bee39561098f78f15bfb3699dcbb7bd8db618545f1b9050620008be565b60118203620005aa577f0da2cb16a1ceaabf1c16b838f7a9e3f2a3a3088d9e0a6debaa748114620696ea5f1b9050620008be565b60128203620005de577f24a3b3d822420b14b5d8cb6c28a574f01e98ea9e940551d2ebd75cee12649f9d5f1b9050620008be565b6013820362000612577f198622acbd783d1b0d9064105b1fc8e4d8889de95c4c519b3f635809fe6afc055f1b9050620008be565b6014820362000646577f29d7ed391256ccc3ea596c86e933b89ff339d25ea8ddced975ae2fe30b5296d45f1b9050620008be565b601582036200067a577f19be59f2f0413ce78c0c3703a3a5451b1d7f39629fa33abd11548a76065b29675f1b9050620008be565b60168203620006ae577f1ff3f61797e538b70e619310d33f2a063e7eb59104e112e95738da1254dc34535f1b9050620008be565b60178203620006e2577f10c16ae9959cf8358980d9dd9616e48228737310a10e2b6b731c1a548f036c485f1b9050620008be565b6018820362000716577f0ba433a63174a90ac20992e75e3095496812b652685b5e1a2eae0b1bf4e8fcd15f1b9050620008be565b601982036200074a577f019ddb9df2bc98d987d0dfeca9d2b643deafab8f7036562e627c3667266a044c5f1b9050620008be565b601a82036200077e577f2d3c88b23175c5a5565db928414c66d1912b11acf974b2e644caaac04739ce995f1b9050620008be565b601b8203620007b2577f2eab55f6ae4e66e32c5189eed5c470840863445760f5ed7e7b69b2a62600f3545f1b9050620008be565b601c8203620007e5577e2df37a2642621802383cf952bf4dd1f32e05433beeb1fd41031fb7eace979d5f1b9050620008be565b601d820362000819577f104aeb41435db66c3e62feccc1d6f5d98d0a0ed75d1374db457cf462e3a1f4275f1b9050620008be565b601e82036200084d577f1f3c6fd858e9a7d4b0d1f38e256a09d81d5a5e3c963987e2d4b814cfab7c6ebb5f1b9050620008be565b601f820362000881577f2c7a07d20dff79d01fecedc1134284a8d08436606c93693b67e333f671bf69cc5f1b9050620008be565b6040517f08c379a0000000000000000000000000000000000000000000000000000000008152600401620008b59062000ba6565b60405180910390fd5b919050565b5f80fd5b5f63ffffffff82169050919050565b620008e181620008c7565b8114620008ec575f80fd5b50565b5f81519050620008ff81620008d6565b92915050565b5f73ffffffffffffffffffffffffffffffffffffffff82169050919050565b5f620009308262000905565b9050919050565b620009428162000924565b81146200094d575f80fd5b50565b5f81519050620009608162000937565b92915050565b5f80604083850312156200097f576200097e620008c3565b5b5f6200098e85828601620008ef565b9250506020620009a18582860162000950565b9150509250929050565b5f82825260208201905092915050565b7f5f6c6576656c732073686f756c642062652067726561746572207468616e207a5f8201527f65726f0000000000000000000000000000000000000000000000000000000000602082015250565b5f62000a17602383620009ab565b915062000a2482620009bb565b604082019050919050565b5f6020820190508181035f83015262000a488162000a09565b9050919050565b7f5f6c6576656c732073686f756c64206265206c657373207468616e20333200005f82015250565b5f62000a85601e83620009ab565b915062000a928262000a4f565b602082019050919050565b5f6020820190508181035f83015262000ab68162000a77565b9050919050565b7f4e487b71000000000000000000000000000000000000000000000000000000005f52601160045260245ffd5b5f62000af682620008c7565b915063ffffffff820362000b0f5762000b0e62000abd565b5b600182019050919050565b5f62000b2682620008c7565b915062000b3383620008c7565b9250828203905063ffffffff81111562000b525762000b5162000abd565b5b92915050565b7f496e646578206f7574206f6620626f756e6473000000000000000000000000005f82015250565b5f62000b8e601383620009ab565b915062000b9b8262000b58565b602082019050919050565b5f6020820190508181035f83015262000bbf8162000b80565b9050919050565b6080516113c562000bed5f395f81816103ed015281816104fd0152610d4001526113c55ff3fe608060405234801561000f575f80fd5b50600436106100cd575f3560e01c8063c2b40ae41161008a578063ec73295911610064578063ec73295914610227578063ed33639f14610245578063f178e47c14610263578063fc7e9c6f14610293576100cd565b8063c2b40ae4146101a9578063cd87a3b4146101d9578063e8295588146101f7576100cd565b8063414a37ba146100d15780634ecf518b146100ef5780635bb939951461010d5780636d9833e31461013d57806390eeb02b1461016d578063ba70f7571461018b575b5f80fd5b6100d96102b1565b6040516100e69190610da5565b60405180910390f35b6100f76102d5565b6040516101049190610ddc565b60405180910390f35b61012760048036038101906101229190610e23565b6102e8565b6040516101349190610e79565b60405180910390f35b61015760048036038101906101529190610ebc565b6105ab565b6040516101649190610f01565b60405180910390f35b61017561063e565b6040516101829190610ddc565b60405180910390f35b610193610653565b6040516101a09190610e79565b60405180910390f35b6101c360048036038101906101be9190610f1a565b610682565b6040516101d09190610e79565b60405180910390f35b6101e1610697565b6040516101ee9190610ddc565b60405180910390f35b610211600480360381019061020c9190610f1a565b61069c565b60405161021e9190610e79565b60405180910390f35b61022f610d1a565b60405161023c9190610da5565b60405180910390f35b61024d610d3e565b60405161025a9190610fbf565b60405180910390f35b61027d60048036038101906102789190610f1a565b610d62565b60405161028a9190610e79565b60405180910390f35b61029b610d77565b6040516102a89190610ddc565b60405180910390f35b7f30644e72e131a029b85045b68181585d2833e84879b9709143e1f593f000000181565b5f8054906101000a900463ffffffff1681565b5f7f30644e72e131a029b85045b68181585d2833e84879b9709143e1f593f0000001831061034b576040517f08c379a000000000000000000000000000000000000000000000000000000000815260040161034290611032565b60405180910390fd5b7f30644e72e131a029b85045b68181585d2833e84879b9709143e1f593f000000182106103ad576040517f08c379a00000000000000000000000000000000000000000000000000000000081526004016103a4906110c0565b60405180910390fd5b5f8390505f7f848c208b5789d4fc33f0d1a0dcfab6bcc410f4e26da779f82b14cb9dc2888bf182826040516103e3929190611128565b60405180910390a17f000000000000000000000000000000000000000000000000000000000000000073ffffffffffffffffffffffffffffffffffffffff16633f1a118783835f6040518463ffffffff1660e01b81526004016104489392919061119b565b6040805180830381865afa158015610462573d5f803e3d5ffd5b505050506040513d601f19601f8201168201806040525081019061048691906111e4565b80925081935050507f848c208b5789d4fc33f0d1a0dcfab6bcc410f4e26da779f82b14cb9dc2888bf182826040516104bf92919061126c565b60405180910390a17f30644e72e131a029b85045b68181585d2833e84879b9709143e1f593f0000001806104f6576104f56112a6565b5b84830891507f000000000000000000000000000000000000000000000000000000000000000073ffffffffffffffffffffffffffffffffffffffff16633f1a118783835f6040518463ffffffff1660e01b81526004016105589392919061119b565b6040805180830381865afa158015610572573d5f803e3d5ffd5b505050506040513d601f19601f8201168201806040525081019061059691906111e4565b8092508193505050815f1b9250505092915050565b5f805f1b82036105bd575f9050610639565b5f60035f9054906101000a900463ffffffff1690505f8190505b60025f8263ffffffff1681526020019081526020015f2054840361060057600192505050610639565b5f8163ffffffff160361061257601e90505b808061061d90611300565b9150508163ffffffff168163ffffffff16036105d7575f925050505b919050565b60035f9054906101000a900463ffffffff1681565b5f60025f60035f9054906101000a900463ffffffff1663ffffffff1681526020019081526020015f2054905090565b6002602052805f5260405f205f915090505481565b601e81565b5f8082036106ce577f2fe54c60d3acabf3343a35b6eba15db4821b340f76e741e2249685ed4899af6c5f1b9050610d15565b60018203610700577f256a6135777eee2fd26f54b8b7037a25439d5235caee224154186d2b8a52e31d5f1b9050610d15565b60028203610732577f1151949895e82ab19924de92c40a3d6f7bcb60d92b00504b8199613683f0c2005f1b9050610d15565b60038203610764577f20121ee811489ff8d61f09fb89e313f14959a0f28bb428a20dba6b0b068b3bdb5f1b9050610d15565b60048203610796577f0a89ca6ffa14cc462cfedb842c30ed221a50a3d6bf022a6a57dc82ab24c157c95f1b9050610d15565b600582036107c8577f24ca05c2b5cd42e890d6be94c68d0689f4f21c9cec9c0f13fe41d566dfb549595f1b9050610d15565b600682036107fa577f1ccb97c932565a92c60156bdba2d08f3bf1377464e025cee765679e604a7315c5f1b9050610d15565b6007820361082c577f19156fbd7d1a8bf5cba8909367de1b624534ebab4f0f79e003bccdd1b182bdb45f1b9050610d15565b6008820361085e577f261af8c1f0912e465744641409f622d466c3920ac6e5ff37e36604cb11dfff805f1b9050610d15565b6009820361088f577e58459724ff6ca5a1652fcbc3e82b93895cf08e975b19beab3f54c217d1c0075f1b9050610d15565b600a82036108c1577f1f04ef20dee48d39984d8eabe768a70eafa6310ad20849d4573c3c40c2ad1e305f1b9050610d15565b600b82036108f3577f1bea3dec5dab51567ce7e200a30f7ba6d4276aeaa53e2686f962a46c66d511e55f1b9050610d15565b600c8203610925577f0ee0f941e2da4b9e31c3ca97a40d8fa9ce68d97c084177071b3cb46cd3372f0f5f1b9050610d15565b600d8203610957577f1ca9503e8935884501bbaf20be14eb4c46b89772c97b96e3b2ebf3a36a948bbd5f1b9050610d15565b600e8203610989577f133a80e30697cd55d8f7d4b0965b7be24057ba5dc3da898ee2187232446cb1085f1b9050610d15565b600f82036109bb577f13e6d8fc88839ed76e182c2a779af5b2c0da9dd18c90427a644f7e148a6253b65f1b9050610d15565b601082036109ed577f1eb16b057a477f4bc8f572ea6bee39561098f78f15bfb3699dcbb7bd8db618545f1b9050610d15565b60118203610a1f577f0da2cb16a1ceaabf1c16b838f7a9e3f2a3a3088d9e0a6debaa748114620696ea5f1b9050610d15565b60128203610a51577f24a3b3d822420b14b5d8cb6c28a574f01e98ea9e940551d2ebd75cee12649f9d5f1b9050610d15565b60138203610a83577f198622acbd783d1b0d9064105b1fc8e4d8889de95c4c519b3f635809fe6afc055f1b9050610d15565b60148203610ab5577f29d7ed391256ccc3ea596c86e933b89ff339d25ea8ddced975ae2fe30b5296d45f1b9050610d15565b60158203610ae7577f19be59f2f0413ce78c0c3703a3a5451b1d7f39629fa33abd11548a76065b29675f1b9050610d15565b60168203610b19577f1ff3f61797e538b70e619310d33f2a063e7eb59104e112e95738da1254dc34535f1b9050610d15565b60178203610b4b577f10c16ae9959cf8358980d9dd9616e48228737310a10e2b6b731c1a548f036c485f1b9050610d15565b60188203610b7d577f0ba433a63174a90ac20992e75e3095496812b652685b5e1a2eae0b1bf4e8fcd15f1b9050610d15565b60198203610baf577f019ddb9df2bc98d987d0dfeca9d2b643deafab8f7036562e627c3667266a044c5f1b9050610d15565b601a8203610be1577f2d3c88b23175c5a5565db928414c66d1912b11acf974b2e644caaac04739ce995f1b9050610d15565b601b8203610c13577f2eab55f6ae4e66e32c5189eed5c470840863445760f5ed7e7b69b2a62600f3545f1b9050610d15565b601c8203610c44577e2df37a2642621802383cf952bf4dd1f32e05433beeb1fd41031fb7eace979d5f1b9050610d15565b601d8203610c76577f104aeb41435db66c3e62feccc1d6f5d98d0a0ed75d1374db457cf462e3a1f4275f1b9050610d15565b601e8203610ca8577f1f3c6fd858e9a7d4b0d1f38e256a09d81d5a5e3c963987e2d4b814cfab7c6ebb5f1b9050610d15565b601f8203610cda577f2c7a07d20dff79d01fecedc1134284a8d08436606c93693b67e333f671bf69cc5f1b9050610d15565b6040517f08c379a0000000000000000000000000000000000000000000000000000000008152600401610d0c90611371565b60405180910390fd5b919050565b7f2fe54c60d3acabf3343a35b6eba15db4821b340f76e741e2249685ed4899af6c81565b7f000000000000000000000000000000000000000000000000000000000000000081565b6001602052805f5260405f205f915090505481565b600360049054906101000a900463ffffffff1681565b5f819050919050565b610d9f81610d8d565b82525050565b5f602082019050610db85f830184610d96565b92915050565b5f63ffffffff82169050919050565b610dd681610dbe565b82525050565b5f602082019050610def5f830184610dcd565b92915050565b5f80fd5b610e0281610d8d565b8114610e0c575f80fd5b50565b5f81359050610e1d81610df9565b92915050565b5f8060408385031215610e3957610e38610df5565b5b5f610e4685828601610e0f565b9250506020610e5785828601610e0f565b9150509250929050565b5f819050919050565b610e7381610e61565b82525050565b5f602082019050610e8c5f830184610e6a565b92915050565b610e9b81610e61565b8114610ea5575f80fd5b50565b5f81359050610eb681610e92565b92915050565b5f60208284031215610ed157610ed0610df5565b5b5f610ede84828501610ea8565b91505092915050565b5f8115159050919050565b610efb81610ee7565b82525050565b5f602082019050610f145f830184610ef2565b92915050565b5f60208284031215610f2f57610f2e610df5565b5b5f610f3c84828501610e0f565b91505092915050565b5f73ffffffffffffffffffffffffffffffffffffffff82169050919050565b5f819050919050565b5f610f87610f82610f7d84610f45565b610f64565b610f45565b9050919050565b5f610f9882610f6d565b9050919050565b5f610fa982610f8e565b9050919050565b610fb981610f9f565b82525050565b5f602082019050610fd25f830184610fb0565b92915050565b5f82825260208201905092915050565b7f5f6c6566742073686f756c6420626520696e7369646520746865206669656c645f82015250565b5f61101c602083610fd8565b915061102782610fe8565b602082019050919050565b5f6020820190508181035f83015261104981611010565b9050919050565b7f5f72696768742073686f756c6420626520696e7369646520746865206669656c5f8201527f6400000000000000000000000000000000000000000000000000000000000000602082015250565b5f6110aa602183610fd8565b91506110b582611050565b604082019050919050565b5f6020820190508181035f8301526110d78161109e565b9050919050565b7f43616c6c696e67204d694d4353706f6e67652077697468205220616e642043005f82015250565b5f611112601f83610fd8565b915061111d826110de565b602082019050919050565b5f6060820190508181035f83015261113f81611106565b905061114e6020830185610d96565b61115b6040830184610d96565b9392505050565b5f819050919050565b5f61118561118061117b84611162565b610f64565b610d8d565b9050919050565b6111958161116b565b82525050565b5f6060820190506111ae5f830186610d96565b6111bb6020830185610d96565b6111c8604083018461118c565b949350505050565b5f815190506111de81610df9565b92915050565b5f80604083850312156111fa576111f9610df5565b5b5f611207858286016111d0565b9250506020611218858286016111d0565b9150509250929050565b7f4166746572206669727374204d694d4353706f6e6765000000000000000000005f82015250565b5f611256601683610fd8565b915061126182611222565b602082019050919050565b5f6060820190508181035f8301526112838161124a565b90506112926020830185610d96565b61129f6040830184610d96565b9392505050565b7f4e487b71000000000000000000000000000000000000000000000000000000005f52601260045260245ffd5b7f4e487b71000000000000000000000000000000000000000000000000000000005f52601160045260245ffd5b5f61130a82610dbe565b91505f820361131c5761131b6112d3565b5b600182039050919050565b7f496e646578206f7574206f6620626f756e6473000000000000000000000000005f82015250565b5f61135b601383610fd8565b915061136682611327565b602082019050919050565b5f6020820190508181035f8301526113888161134f565b905091905056fea264697066735822122014566487d43a103be2a9f7f819321dc1399f851ac9a4338e241990994ef6fdbc64736f6c63430008150033",
  "immutableReferences": {
    "24": [
      {
        "length": 32,
        "start": 1005
      },
      {
        "length": 32,
        "start": 1277
      },
      {
        "length": 32,
        "start": 3392
      }
    ]
  },
  "source": "// based on https://github.com/tornadocash/tornado-core/blob/master/contracts/MerkleTreeWithHistory.sol\n\n// SPDX-License-Identifier: MIT\npragma solidity ^0.8.17;\n\ninterface IHasher {\n    function MiMCSponge(\n        uint256 xL_in,\n        uint256 xR_in,\n        uint256 k\n    ) external pure returns (uint256 xL, uint256 xR);\n}\n\ncontract MerkleTreeWithHistory {\n    uint256 public constant FIELD_SIZE =\n        21888242871839275222246405745257275088548364400416034343698204186575808495617;\n    uint256 public constant ZERO_VALUE =\n        21663839004416932945382355908790599225266501822907911457504978515578255421292; // = keccak256(\"tornado\") % FIELD_SIZE\n    IHasher public immutable hasher;\n\n    uint32 public levels;\n\n    // the following variables are made public for easier testing and debugging and\n    // are not supposed to be accessed in regular code\n\n    // filledSubtrees and roots could be bytes32[size], but using mappings makes it cheaper because\n    // it removes index range check on every interaction\n    mapping(uint256 => bytes32) public filledSubtrees;\n    mapping(uint256 => bytes32) public roots;\n    uint32 public constant ROOT_HISTORY_SIZE = 30;\n    uint32 public currentRootIndex = 0;\n    uint32 public nextIndex = 0;\n\n    constructor(uint32 _levels, address _addr) {\n        require(_levels > 0, \"_levels should be greater than zero\");\n        require(_levels < 32, \"_levels should be less than 32\");\n        levels = _levels;\n        hasher = IHasher(_addr);\n\n        for (uint32 i = 0; i < _levels; i++) {\n            filledSubtrees[i] = zeros(i);\n        }\n\n        roots[0] = zeros(_levels - 1);\n    }\n\n\n\n    event Debug(string message, uint256 value1, uint256 value2);\n\n    /**\n    @dev Hash 2 tree leaves, returns MiMC(_left, _right)\n    */\n    function hashLeftRight(\n        uint256 _left,\n        uint256 _right\n    ) public returns (bytes32) {\n        require(\n            _left < FIELD_SIZE,\n            \"_left should be inside the field\"\n        );\n        require(\n            _right < FIELD_SIZE,\n            \"_right should be inside the field\"\n        );\n        uint256 R = _left;\n        uint256 C = 0;\n        emit Debug(\"Calling MiMCSponge with R and C\", R, C);\n        (R, C) = hasher.MiMCSponge(R, C, 0);\n        emit Debug(\"After first MiMCSponge\", R, C);\n        R = addmod(R, _right, FIELD_SIZE);\n        (R, C) = hasher.MiMCSponge(R, C, 0);\n        return bytes32(R);\n    }\n\n    function _insert(bytes32 _leaf) internal returns (uint32 index) {\n        uint32 _nextIndex = nextIndex;\n        require(\n            _nextIndex != uint32(2) ** levels,\n            \"Merkle tree is full. No more leaves can be added\"\n        );\n        uint32 currentIndex = _nextIndex;\n        bytes32 currentLevelHash = _leaf;\n        bytes32 left;\n        bytes32 right;\n\n        for (uint32 i = 0; i < levels; i++) {\n            if (currentIndex % 2 == 0) {\n                left = currentLevelHash;\n                right = zeros(i);\n                filledSubtrees[i] = currentLevelHash;\n            } else {\n                left = filledSubtrees[i];\n                right = currentLevelHash;\n            }\n            currentLevelHash = hashLeftRight(uint256(left), uint256(right));\n            currentIndex /= 2;\n        }\n\n        uint32 newRootIndex = (currentRootIndex + 1) % ROOT_HISTORY_SIZE;\n        currentRootIndex = newRootIndex;\n        roots[newRootIndex] = currentLevelHash;\n        nextIndex = _nextIndex + 1;\n        return _nextIndex;\n    }\n\n    /**\n    @dev Whether the root is present in the root history\n    */\n    function isKnownRoot(bytes32 _root) public view returns (bool) {\n        if (_root == 0) {\n            return false;\n        }\n        uint32 _currentRootIndex = currentRootIndex;\n        uint32 i = _currentRootIndex;\n        do {\n            if (_root == roots[i]) {\n                return true;\n            }\n            if (i == 0) {\n                i = ROOT_HISTORY_SIZE;\n            }\n            i--;\n        } while (i != _currentRootIndex);\n        return false;\n    }\n\n    /**\n    @dev Returns the last root\n    */\n    function getLastRoot() public view returns (bytes32) {\n        return roots[currentRootIndex];\n    }\n\n    /// @dev provides Zero (Empty) elements for a MiMC MerkleTree. Up to 32 levels\n    function zeros(uint256 i) public pure returns (bytes32) {\n        if (i == 0)\n            return\n                bytes32(\n                    0x2fe54c60d3acabf3343a35b6eba15db4821b340f76e741e2249685ed4899af6c\n                );\n        else if (i == 1)\n            return\n                bytes32(\n                    0x256a6135777eee2fd26f54b8b7037a25439d5235caee224154186d2b8a52e31d\n                );\n        else if (i == 2)\n            return\n                bytes32(\n                    0x1151949895e82ab19924de92c40a3d6f7bcb60d92b00504b8199613683f0c200\n                );\n        else if (i == 3)\n            return\n                bytes32(\n                    0x20121ee811489ff8d61f09fb89e313f14959a0f28bb428a20dba6b0b068b3bdb\n                );\n        else if (i == 4)\n            return\n                bytes32(\n                    0x0a89ca6ffa14cc462cfedb842c30ed221a50a3d6bf022a6a57dc82ab24c157c9\n                );\n        else if (i == 5)\n            return\n                bytes32(\n                    0x24ca05c2b5cd42e890d6be94c68d0689f4f21c9cec9c0f13fe41d566dfb54959\n                );\n        else if (i == 6)\n            return\n                bytes32(\n                    0x1ccb97c932565a92c60156bdba2d08f3bf1377464e025cee765679e604a7315c\n                );\n        else if (i == 7)\n            return\n                bytes32(\n                    0x19156fbd7d1a8bf5cba8909367de1b624534ebab4f0f79e003bccdd1b182bdb4\n                );\n        else if (i == 8)\n            return\n                bytes32(\n                    0x261af8c1f0912e465744641409f622d466c3920ac6e5ff37e36604cb11dfff80\n                );\n        else if (i == 9)\n            return\n                bytes32(\n                    0x0058459724ff6ca5a1652fcbc3e82b93895cf08e975b19beab3f54c217d1c007\n                );\n        else if (i == 10)\n            return\n                bytes32(\n                    0x1f04ef20dee48d39984d8eabe768a70eafa6310ad20849d4573c3c40c2ad1e30\n                );\n        else if (i == 11)\n            return\n                bytes32(\n                    0x1bea3dec5dab51567ce7e200a30f7ba6d4276aeaa53e2686f962a46c66d511e5\n                );\n        else if (i == 12)\n            return\n                bytes32(\n                    0x0ee0f941e2da4b9e31c3ca97a40d8fa9ce68d97c084177071b3cb46cd3372f0f\n                );\n        else if (i == 13)\n            return\n                bytes32(\n                    0x1ca9503e8935884501bbaf20be14eb4c46b89772c97b96e3b2ebf3a36a948bbd\n                );\n        else if (i == 14)\n            return\n                bytes32(\n                    0x133a80e30697cd55d8f7d4b0965b7be24057ba5dc3da898ee2187232446cb108\n                );\n        else if (i == 15)\n            return\n                bytes32(\n                    0x13e6d8fc88839ed76e182c2a779af5b2c0da9dd18c90427a644f7e148a6253b6\n                );\n        else if (i == 16)\n            return\n                bytes32(\n                    0x1eb16b057a477f4bc8f572ea6bee39561098f78f15bfb3699dcbb7bd8db61854\n                );\n        else if (i == 17)\n            return\n                bytes32(\n                    0x0da2cb16a1ceaabf1c16b838f7a9e3f2a3a3088d9e0a6debaa748114620696ea\n                );\n        else if (i == 18)\n            return\n                bytes32(\n                    0x24a3b3d822420b14b5d8cb6c28a574f01e98ea9e940551d2ebd75cee12649f9d\n                );\n        else if (i == 19)\n            return\n                bytes32(\n                    0x198622acbd783d1b0d9064105b1fc8e4d8889de95c4c519b3f635809fe6afc05\n                );\n        else if (i == 20)\n            return\n                bytes32(\n                    0x29d7ed391256ccc3ea596c86e933b89ff339d25ea8ddced975ae2fe30b5296d4\n                );\n        else if (i == 21)\n            return\n                bytes32(\n                    0x19be59f2f0413ce78c0c3703a3a5451b1d7f39629fa33abd11548a76065b2967\n                );\n        else if (i == 22)\n            return\n                bytes32(\n                    0x1ff3f61797e538b70e619310d33f2a063e7eb59104e112e95738da1254dc3453\n                );\n        else if (i == 23)\n            return\n                bytes32(\n                    0x10c16ae9959cf8358980d9dd9616e48228737310a10e2b6b731c1a548f036c48\n                );\n        else if (i == 24)\n            return\n                bytes32(\n                    0x0ba433a63174a90ac20992e75e3095496812b652685b5e1a2eae0b1bf4e8fcd1\n                );\n        else if (i == 25)\n            return\n                bytes32(\n                    0x019ddb9df2bc98d987d0dfeca9d2b643deafab8f7036562e627c3667266a044c\n                );\n        else if (i == 26)\n            return\n                bytes32(\n                    0x2d3c88b23175c5a5565db928414c66d1912b11acf974b2e644caaac04739ce99\n                );\n        else if (i == 27)\n            return\n                bytes32(\n                    0x2eab55f6ae4e66e32c5189eed5c470840863445760f5ed7e7b69b2a62600f354\n                );\n        else if (i == 28)\n            return\n                bytes32(\n                    0x002df37a2642621802383cf952bf4dd1f32e05433beeb1fd41031fb7eace979d\n                );\n        else if (i == 29)\n            return\n                bytes32(\n                    0x104aeb41435db66c3e62feccc1d6f5d98d0a0ed75d1374db457cf462e3a1f427\n                );\n        else if (i == 30)\n            return\n                bytes32(\n                    0x1f3c6fd858e9a7d4b0d1f38e256a09d81d5a5e3c963987e2d4b814cfab7c6ebb\n                );\n        else if (i == 31)\n            return\n                bytes32(\n                    0x2c7a07d20dff79d01fecedc1134284a8d08436606c93693b67e333f671bf69cc\n                );\n        else revert(\"Index out of bounds\");\n    }\n}",
  "sourcePath": "/Users/liqi/Documents/Project/routing_security/VRO/anonymous_voting/contracts/MerkleTreeWithHistory.sol",
  "compiler": {
    "name": "solc",
    "version": "0.8.21+commit.d9974bed.Emscripten.clang"
  },
  "schemaVersion": "3.4.16",
  "updatedAt": "2024-08-12T04:25:20.371Z",
  "devdoc": {
    "kind": "dev",
    "methods": {
      "getLastRoot()": {
        "details": "Returns the last root"
      },
      "hashLeftRight(uint256,uint256)": {
        "details": "Hash 2 tree leaves, returns MiMC(_left, _right)"
      },
      "isKnownRoot(bytes32)": {
        "details": "Whether the root is present in the root history"
      },
      "zeros(uint256)": {
        "details": "provides Zero (Empty) elements for a MiMC MerkleTree. Up to 32 levels"
      }
    },
    "version": 1
  },
  "userdoc": {
    "kind": "user",
    "methods": {},
    "version": 1
  }
}