{
  "contractName": "ZKTreeVote",
  "abi": [
    {
      "inputs": [
        {
          "internalType": "uint32",
          "name": "_levels",
          "type": "uint32"
        },
        {
          "internalType": "contract IHasher",
          "name": "_hasher",
          "type": "address"
        },
        {
          "internalType": "contract IVerifier",
          "name": "_verifier",
          "type": "address"
        },
        {
          "internalType": "uint256",
          "name": "_numOptions",
          "type": "uint256"
        }
      ],
      "stateMutability": "nonpayable",
      "type": "constructor"
    },
    {
      "anonymous": false,
      "inputs": [
        {
          "indexed": true,
          "internalType": "bytes32",
          "name": "commitment",
          "type": "bytes32"
        },
        {
          "indexed": false,
          "internalType": "uint32",
          "name": "leafIndex",
          "type": "uint32"
        },
        {
          "indexed": false,
          "internalType": "uint256",
          "name": "timestamp",
          "type": "uint256"
        }
      ],
      "name": "Commit",
      "type": "event"
    },
    {
      "inputs": [],
      "name": "FIELD_SIZE",
      "outputs": [
        {
          "internalType": "uint256",
          "name": "",
          "type": "uint256"
        }
      ],
      "stateMutability": "view",
      "type": "function",
      "constant": true
    },
    {
      "inputs": [],
      "name": "ROOT_HISTORY_SIZE",
      "outputs": [
        {
          "internalType": "uint32",
          "name": "",
          "type": "uint32"
        }
      ],
      "stateMutability": "view",
      "type": "function",
      "constant": true
    },
    {
      "inputs": [],
      "name": "ZERO_VALUE",
      "outputs": [
        {
          "internalType": "uint256",
          "name": "",
          "type": "uint256"
        }
      ],
      "stateMutability": "view",
      "type": "function",
      "constant": true
    },
    {
      "inputs": [
        {
          "internalType": "bytes32",
          "name": "",
          "type": "bytes32"
        }
      ],
      "name": "commitments",
      "outputs": [
        {
          "internalType": "bool",
          "name": "",
          "type": "bool"
        }
      ],
      "stateMutability": "view",
      "type": "function",
      "constant": true
    },
    {
      "inputs": [],
      "name": "currentRootIndex",
      "outputs": [
        {
          "internalType": "uint32",
          "name": "",
          "type": "uint32"
        }
      ],
      "stateMutability": "view",
      "type": "function",
      "constant": true
    },
    {
      "inputs": [
        {
          "internalType": "uint256",
          "name": "",
          "type": "uint256"
        }
      ],
      "name": "filledSubtrees",
      "outputs": [
        {
          "internalType": "bytes32",
          "name": "",
          "type": "bytes32"
        }
      ],
      "stateMutability": "view",
      "type": "function",
      "constant": true
    },
    {
      "inputs": [],
      "name": "getLastRoot",
      "outputs": [
        {
          "internalType": "bytes32",
          "name": "",
          "type": "bytes32"
        }
      ],
      "stateMutability": "view",
      "type": "function",
      "constant": true
    },
    {
      "inputs": [
        {
          "internalType": "uint256",
          "name": "_left",
          "type": "uint256"
        },
        {
          "internalType": "uint256",
          "name": "_right",
          "type": "uint256"
        }
      ],
      "name": "hashLeftRight",
      "outputs": [
        {
          "internalType": "bytes32",
          "name": "",
          "type": "bytes32"
        }
      ],
      "stateMutability": "view",
      "type": "function",
      "constant": true
    },
    {
      "inputs": [],
      "name": "hasher",
      "outputs": [
        {
          "internalType": "contract IHasher",
          "name": "",
          "type": "address"
        }
      ],
      "stateMutability": "view",
      "type": "function",
      "constant": true
    },
    {
      "inputs": [
        {
          "internalType": "bytes32",
          "name": "_root",
          "type": "bytes32"
        }
      ],
      "name": "isKnownRoot",
      "outputs": [
        {
          "internalType": "bool",
          "name": "",
          "type": "bool"
        }
      ],
      "stateMutability": "view",
      "type": "function",
      "constant": true
    },
    {
      "inputs": [],
      "name": "levels",
      "outputs": [
        {
          "internalType": "uint32",
          "name": "",
          "type": "uint32"
        }
      ],
      "stateMutability": "view",
      "type": "function",
      "constant": true
    },
    {
      "inputs": [],
      "name": "nextIndex",
      "outputs": [
        {
          "internalType": "uint32",
          "name": "",
          "type": "uint32"
        }
      ],
      "stateMutability": "view",
      "type": "function",
      "constant": true
    },
    {
      "inputs": [
        {
          "internalType": "bytes32",
          "name": "",
          "type": "bytes32"
        }
      ],
      "name": "nullifiers",
      "outputs": [
        {
          "internalType": "bool",
          "name": "",
          "type": "bool"
        }
      ],
      "stateMutability": "view",
      "type": "function",
      "constant": true
    },
    {
      "inputs": [],
      "name": "owner",
      "outputs": [
        {
          "internalType": "address",
          "name": "",
          "type": "address"
        }
      ],
      "stateMutability": "view",
      "type": "function",
      "constant": true
    },
    {
      "inputs": [
        {
          "internalType": "uint256",
          "name": "",
          "type": "uint256"
        }
      ],
      "name": "roots",
      "outputs": [
        {
          "internalType": "bytes32",
          "name": "",
          "type": "bytes32"
        }
      ],
      "stateMutability": "view",
      "type": "function",
      "constant": true
    },
    {
      "inputs": [
        {
          "internalType": "address",
          "name": "",
          "type": "address"
        }
      ],
      "name": "validators",
      "outputs": [
        {
          "internalType": "bool",
          "name": "",
          "type": "bool"
        }
      ],
      "stateMutability": "view",
      "type": "function",
      "constant": true
    },
    {
      "inputs": [],
      "name": "verifier",
      "outputs": [
        {
          "internalType": "contract IVerifier",
          "name": "",
          "type": "address"
        }
      ],
      "stateMutability": "view",
      "type": "function",
      "constant": true
    },
    {
      "inputs": [
        {
          "internalType": "uint256",
          "name": "i",
          "type": "uint256"
        }
      ],
      "name": "zeros",
      "outputs": [
        {
          "internalType": "bytes32",
          "name": "",
          "type": "bytes32"
        }
      ],
      "stateMutability": "pure",
      "type": "function",
      "constant": true
    },
    {
      "inputs": [
        {
          "internalType": "address",
          "name": "_validator",
          "type": "address"
        }
      ],
      "name": "registerValidator",
      "outputs": [],
      "stateMutability": "nonpayable",
      "type": "function"
    },
    {
      "inputs": [
        {
          "internalType": "uint256",
          "name": "_uniqueHash",
          "type": "uint256"
        },
        {
          "internalType": "uint256",
          "name": "_commitment",
          "type": "uint256"
        }
      ],
      "name": "registerCommitment",
      "outputs": [],
      "stateMutability": "nonpayable",
      "type": "function"
    },
    {
      "inputs": [
        {
          "internalType": "uint256",
          "name": "_option",
          "type": "uint256"
        },
        {
          "internalType": "uint256",
          "name": "_nullifier",
          "type": "uint256"
        },
        {
          "internalType": "uint256",
          "name": "_root",
          "type": "uint256"
        },
        {
          "internalType": "uint256[2]",
          "name": "_proof_a",
          "type": "uint256[2]"
        },
        {
          "internalType": "uint256[2][2]",
          "name": "_proof_b",
          "type": "uint256[2][2]"
        },
        {
          "internalType": "uint256[2]",
          "name": "_proof_c",
          "type": "uint256[2]"
        }
      ],
      "name": "vote",
      "outputs": [],
      "stateMutability": "nonpayable",
      "type": "function"
    },
    {
      "inputs": [
        {
          "internalType": "uint256",
          "name": "_option",
          "type": "uint256"
        }
      ],
      "name": "getOptionCounter",
      "outputs": [
        {
          "internalType": "uint256",
          "name": "",
          "type": "uint256"
        }
      ],
      "stateMutability": "view",
      "type": "function",
      "constant": true
    }
  ],
  "bytecode": "0x60c06040525f60035f6101000a81548163ffffffff021916908363ffffffff1602179055505f600360046101000a81548163ffffffff021916908363ffffffff16021790555034801562000051575f80fd5b506040516200365b3803806200365b833981810160405281019062000077919062000ab3565b83838382825f8263ffffffff1611620000c7576040517f08c379a0000000000000000000000000000000000000000000000000000000008152600401620000be9062000ba6565b60405180910390fd5b60208263ffffffff161062000113576040517f08c379a00000000000000000000000000000000000000000000000000000000081526004016200010a9062000c14565b60405180910390fd5b815f806101000a81548163ffffffff021916908363ffffffff1602179055508073ffffffffffffffffffffffffffffffffffffffff1660808173ffffffffffffffffffffffffffffffffffffffff16815250505f5b8263ffffffff168163ffffffff161015620001c557620001948163ffffffff16620002c360201b60201c565b60015f8363ffffffff1681526020019081526020015f20819055508080620001bc9062000c61565b91505062000168565b50620001eb600183620001d9919062000c91565b63ffffffff16620002c360201b60201c565b60025f8081526020019081526020015f208190555050508073ffffffffffffffffffffffffffffffffffffffff1660a08173ffffffffffffffffffffffffffffffffffffffff16815250505050503360065f6101000a81548173ffffffffffffffffffffffffffffffffffffffff021916908373ffffffffffffffffffffffffffffffffffffffff160217905550806009819055505f5b6009548111620002b8575f600a5f8381526020019081526020015f20819055508080620002af9062000ccf565b91505062000282565b505050505062000d89565b5f808203620002f7577f2fe54c60d3acabf3343a35b6eba15db4821b340f76e741e2249685ed4899af6c5f1b90506200097e565b600182036200032b577f256a6135777eee2fd26f54b8b7037a25439d5235caee224154186d2b8a52e31d5f1b90506200097e565b600282036200035f577f1151949895e82ab19924de92c40a3d6f7bcb60d92b00504b8199613683f0c2005f1b90506200097e565b6003820362000393577f20121ee811489ff8d61f09fb89e313f14959a0f28bb428a20dba6b0b068b3bdb5f1b90506200097e565b60048203620003c7577f0a89ca6ffa14cc462cfedb842c30ed221a50a3d6bf022a6a57dc82ab24c157c95f1b90506200097e565b60058203620003fb577f24ca05c2b5cd42e890d6be94c68d0689f4f21c9cec9c0f13fe41d566dfb549595f1b90506200097e565b600682036200042f577f1ccb97c932565a92c60156bdba2d08f3bf1377464e025cee765679e604a7315c5f1b90506200097e565b6007820362000463577f19156fbd7d1a8bf5cba8909367de1b624534ebab4f0f79e003bccdd1b182bdb45f1b90506200097e565b6008820362000497577f261af8c1f0912e465744641409f622d466c3920ac6e5ff37e36604cb11dfff805f1b90506200097e565b60098203620004ca577e58459724ff6ca5a1652fcbc3e82b93895cf08e975b19beab3f54c217d1c0075f1b90506200097e565b600a8203620004fe577f1f04ef20dee48d39984d8eabe768a70eafa6310ad20849d4573c3c40c2ad1e305f1b90506200097e565b600b820362000532577f1bea3dec5dab51567ce7e200a30f7ba6d4276aeaa53e2686f962a46c66d511e55f1b90506200097e565b600c820362000566577f0ee0f941e2da4b9e31c3ca97a40d8fa9ce68d97c084177071b3cb46cd3372f0f5f1b90506200097e565b600d82036200059a577f1ca9503e8935884501bbaf20be14eb4c46b89772c97b96e3b2ebf3a36a948bbd5f1b90506200097e565b600e8203620005ce577f133a80e30697cd55d8f7d4b0965b7be24057ba5dc3da898ee2187232446cb1085f1b90506200097e565b600f820362000602577f13e6d8fc88839ed76e182c2a779af5b2c0da9dd18c90427a644f7e148a6253b65f1b90506200097e565b6010820362000636577f1eb16b057a477f4bc8f572ea6bee39561098f78f15bfb3699dcbb7bd8db618545f1b90506200097e565b601182036200066a577f0da2cb16a1ceaabf1c16b838f7a9e3f2a3a3088d9e0a6debaa748114620696ea5f1b90506200097e565b601282036200069e577f24a3b3d822420b14b5d8cb6c28a574f01e98ea9e940551d2ebd75cee12649f9d5f1b90506200097e565b60138203620006d2577f198622acbd783d1b0d9064105b1fc8e4d8889de95c4c519b3f635809fe6afc055f1b90506200097e565b6014820362000706577f29d7ed391256ccc3ea596c86e933b89ff339d25ea8ddced975ae2fe30b5296d45f1b90506200097e565b601582036200073a577f19be59f2f0413ce78c0c3703a3a5451b1d7f39629fa33abd11548a76065b29675f1b90506200097e565b601682036200076e577f1ff3f61797e538b70e619310d33f2a063e7eb59104e112e95738da1254dc34535f1b90506200097e565b60178203620007a2577f10c16ae9959cf8358980d9dd9616e48228737310a10e2b6b731c1a548f036c485f1b90506200097e565b60188203620007d6577f0ba433a63174a90ac20992e75e3095496812b652685b5e1a2eae0b1bf4e8fcd15f1b90506200097e565b601982036200080a577f019ddb9df2bc98d987d0dfeca9d2b643deafab8f7036562e627c3667266a044c5f1b90506200097e565b601a82036200083e577f2d3c88b23175c5a5565db928414c66d1912b11acf974b2e644caaac04739ce995f1b90506200097e565b601b820362000872577f2eab55f6ae4e66e32c5189eed5c470840863445760f5ed7e7b69b2a62600f3545f1b90506200097e565b601c8203620008a5577e2df37a2642621802383cf952bf4dd1f32e05433beeb1fd41031fb7eace979d5f1b90506200097e565b601d8203620008d9577f104aeb41435db66c3e62feccc1d6f5d98d0a0ed75d1374db457cf462e3a1f4275f1b90506200097e565b601e82036200090d577f1f3c6fd858e9a7d4b0d1f38e256a09d81d5a5e3c963987e2d4b814cfab7c6ebb5f1b90506200097e565b601f820362000941577f2c7a07d20dff79d01fecedc1134284a8d08436606c93693b67e333f671bf69cc5f1b90506200097e565b6040517f08c379a0000000000000000000000000000000000000000000000000000000008152600401620009759062000d69565b60405180910390fd5b919050565b5f80fd5b5f63ffffffff82169050919050565b620009a18162000987565b8114620009ac575f80fd5b50565b5f81519050620009bf8162000996565b92915050565b5f73ffffffffffffffffffffffffffffffffffffffff82169050919050565b5f620009f082620009c5565b9050919050565b5f62000a0382620009e4565b9050919050565b62000a1581620009f7565b811462000a20575f80fd5b50565b5f8151905062000a338162000a0a565b92915050565b5f62000a4582620009e4565b9050919050565b62000a578162000a39565b811462000a62575f80fd5b50565b5f8151905062000a758162000a4c565b92915050565b5f819050919050565b62000a8f8162000a7b565b811462000a9a575f80fd5b50565b5f8151905062000aad8162000a84565b92915050565b5f805f806080858703121562000ace5762000acd62000983565b5b5f62000add87828801620009af565b945050602062000af08782880162000a23565b935050604062000b038782880162000a65565b925050606062000b168782880162000a9d565b91505092959194509250565b5f82825260208201905092915050565b7f5f6c6576656c732073686f756c642062652067726561746572207468616e207a5f8201527f65726f0000000000000000000000000000000000000000000000000000000000602082015250565b5f62000b8e60238362000b22565b915062000b9b8262000b32565b604082019050919050565b5f6020820190508181035f83015262000bbf8162000b80565b9050919050565b7f5f6c6576656c732073686f756c64206265206c657373207468616e20333200005f82015250565b5f62000bfc601e8362000b22565b915062000c098262000bc6565b602082019050919050565b5f6020820190508181035f83015262000c2d8162000bee565b9050919050565b7f4e487b71000000000000000000000000000000000000000000000000000000005f52601160045260245ffd5b5f62000c6d8262000987565b915063ffffffff820362000c865762000c8562000c34565b5b600182019050919050565b5f62000c9d8262000987565b915062000caa8362000987565b9250828203905063ffffffff81111562000cc95762000cc862000c34565b5b92915050565b5f62000cdb8262000a7b565b91507fffffffffffffffffffffffffffffffffffffffffffffffffffffffffffffffff820362000d105762000d0f62000c34565b5b600182019050919050565b7f496e646578206f7574206f6620626f756e6473000000000000000000000000005f82015250565b5f62000d5160138362000b22565b915062000d5e8262000d1b565b602082019050919050565b5f6020820190508181035f83015262000d828162000d43565b9050919050565b60805160a05161289b62000dc05f395f81816105b201526113f401525f81816106d7015281816107ae0152611175015261289b5ff3fe608060405234801561000f575f80fd5b5060043610610140575f3560e01c80639fca5169116100b6578063e82955881161007a578063e82955881461038a578063ec732959146103ba578063ed33639f146103d8578063f178e47c146103f6578063fa52c7d814610426578063fc7e9c6f1461045657610140565b80639fca5169146102e6578063ba70f75714610302578063c2b40ae414610320578063cd87a3b414610350578063ce8f63771461036e57610140565b80635bb93995116101085780635bb93995146101ea5780636d9833e31461021a578063839df9451461024a5780638da5cb5b1461027a57806390eeb02b14610298578063955e0377146102b657610140565b80631407beb8146101445780632997e86b146101605780632b7ac3f314610190578063414a37ba146101ae5780634ecf518b146101cc575b5f80fd5b61015e6004803603810190610159919061176c565b610474565b005b61017a600480360381019061017591906117dd565b610593565b6040516101879190611822565b60405180910390f35b6101986105b0565b6040516101a591906118b5565b60405180910390f35b6101b66105d4565b6040516101c391906118dd565b60405180910390f35b6101d46105f8565b6040516101e19190611914565b60405180910390f35b61020460048036038101906101ff919061176c565b61060b565b604051610211919061193c565b60405180910390f35b610234600480360381019061022f91906117dd565b61085c565b6040516102419190611822565b60405180910390f35b610264600480360381019061025f91906117dd565b6108ef565b6040516102719190611822565b60405180910390f35b61028261090c565b60405161028f9190611975565b60405180910390f35b6102a0610931565b6040516102ad9190611914565b60405180910390f35b6102d060048036038101906102cb919061198e565b610946565b6040516102dd91906118dd565b60405180910390f35b61030060048036038101906102fb91906119e3565b610960565b005b61030a6109f7565b604051610317919061193c565b60405180910390f35b61033a6004803603810190610335919061198e565b610a26565b604051610347919061193c565b60405180910390f35b610358610a3b565b6040516103659190611914565b60405180910390f35b61038860048036038101906103839190611bfa565b610a40565b005b6103a4600480360381019061039f919061198e565b610ad1565b6040516103b1919061193c565b60405180910390f35b6103c261114f565b6040516103cf91906118dd565b60405180910390f35b6103e0611173565b6040516103ed9190611ca5565b60405180910390f35b610410600480360381019061040b919061198e565b611197565b60405161041d919061193c565b60405180910390f35b610440600480360381019061043b91906119e3565b6111ac565b60405161044d9190611822565b60405180910390f35b61045e6111c9565b60405161046b9190611914565b60405180910390f35b60075f3373ffffffffffffffffffffffffffffffffffffffff1673ffffffffffffffffffffffffffffffffffffffff1681526020019081526020015f205f9054906101000a900460ff166104fd576040517f08c379a00000000000000000000000000000000000000000000000000000000081526004016104f490611d18565b60405180910390fd5b60085f8381526020019081526020015f205f9054906101000a900460ff161561055b576040517f08c379a000000000000000000000000000000000000000000000000000000000815260040161055290611da6565b60405180910390fd5b610566815f1b6111df565b600160085f8481526020019081526020015f205f6101000a81548160ff0219169083151502179055505050565b6004602052805f5260405f205f915054906101000a900460ff1681565b7f000000000000000000000000000000000000000000000000000000000000000081565b7f30644e72e131a029b85045b68181585d2833e84879b9709143e1f593f000000181565b5f8054906101000a900463ffffffff1681565b5f7f30644e72e131a029b85045b68181585d2833e84879b9709143e1f593f0000001831061066e576040517f08c379a000000000000000000000000000000000000000000000000000000000815260040161066590611e0e565b60405180910390fd5b7f30644e72e131a029b85045b68181585d2833e84879b9709143e1f593f000000182106106d0576040517f08c379a00000000000000000000000000000000000000000000000000000000081526004016106c790611e9c565b60405180910390fd5b5f8390505f7f000000000000000000000000000000000000000000000000000000000000000073ffffffffffffffffffffffffffffffffffffffff16633f1a118783835f6040518463ffffffff1660e01b815260040161073293929190611ef3565b6040805180830381865afa15801561074c573d5f803e3d5ffd5b505050506040513d601f19601f820116820180604052508101906107709190611f3c565b80925081935050507f30644e72e131a029b85045b68181585d2833e84879b9709143e1f593f0000001806107a7576107a6611f7a565b5b84830891507f000000000000000000000000000000000000000000000000000000000000000073ffffffffffffffffffffffffffffffffffffffff16633f1a118783835f6040518463ffffffff1660e01b815260040161080993929190611ef3565b6040805180830381865afa158015610823573d5f803e3d5ffd5b505050506040513d601f19601f820116820180604052508101906108479190611f3c565b8092508193505050815f1b9250505092915050565b5f805f1b820361086e575f90506108ea565b5f60035f9054906101000a900463ffffffff1690505f8190505b60025f8263ffffffff1681526020019081526020015f205484036108b1576001925050506108ea565b5f8163ffffffff16036108c357601e90505b80806108ce90611fd4565b9150508163ffffffff168163ffffffff1603610888575f925050505b919050565b6005602052805f5260405f205f915054906101000a900460ff1681565b60065f9054906101000a900473ffffffffffffffffffffffffffffffffffffffff1681565b60035f9054906101000a900463ffffffff1681565b5f600a5f8381526020019081526020015f20549050919050565b600160075f8373ffffffffffffffffffffffffffffffffffffffff1673ffffffffffffffffffffffffffffffffffffffff1681526020019081526020015f205f6101000a81548160ff0219169083151502179055506109f46040518060400160405280600981526020017f56616c696461746f720000000000000000000000000000000000000000000000815250826112b0565b50565b5f60025f60035f9054906101000a900463ffffffff1663ffffffff1681526020019081526020015f2054905090565b6002602052805f5260405f205f915090505481565b601e81565b600954861115610a85576040517f08c379a0000000000000000000000000000000000000000000000000000000008152600401610a7c90612045565b60405180910390fd5b610a96855f1b855f1b85858561134c565b6001600a5f8881526020019081526020015f2054610ab49190612063565b600a5f8881526020019081526020015f2081905550505050505050565b5f808203610b03577f2fe54c60d3acabf3343a35b6eba15db4821b340f76e741e2249685ed4899af6c5f1b905061114a565b60018203610b35577f256a6135777eee2fd26f54b8b7037a25439d5235caee224154186d2b8a52e31d5f1b905061114a565b60028203610b67577f1151949895e82ab19924de92c40a3d6f7bcb60d92b00504b8199613683f0c2005f1b905061114a565b60038203610b99577f20121ee811489ff8d61f09fb89e313f14959a0f28bb428a20dba6b0b068b3bdb5f1b905061114a565b60048203610bcb577f0a89ca6ffa14cc462cfedb842c30ed221a50a3d6bf022a6a57dc82ab24c157c95f1b905061114a565b60058203610bfd577f24ca05c2b5cd42e890d6be94c68d0689f4f21c9cec9c0f13fe41d566dfb549595f1b905061114a565b60068203610c2f577f1ccb97c932565a92c60156bdba2d08f3bf1377464e025cee765679e604a7315c5f1b905061114a565b60078203610c61577f19156fbd7d1a8bf5cba8909367de1b624534ebab4f0f79e003bccdd1b182bdb45f1b905061114a565b60088203610c93577f261af8c1f0912e465744641409f622d466c3920ac6e5ff37e36604cb11dfff805f1b905061114a565b60098203610cc4577e58459724ff6ca5a1652fcbc3e82b93895cf08e975b19beab3f54c217d1c0075f1b905061114a565b600a8203610cf6577f1f04ef20dee48d39984d8eabe768a70eafa6310ad20849d4573c3c40c2ad1e305f1b905061114a565b600b8203610d28577f1bea3dec5dab51567ce7e200a30f7ba6d4276aeaa53e2686f962a46c66d511e55f1b905061114a565b600c8203610d5a577f0ee0f941e2da4b9e31c3ca97a40d8fa9ce68d97c084177071b3cb46cd3372f0f5f1b905061114a565b600d8203610d8c577f1ca9503e8935884501bbaf20be14eb4c46b89772c97b96e3b2ebf3a36a948bbd5f1b905061114a565b600e8203610dbe577f133a80e30697cd55d8f7d4b0965b7be24057ba5dc3da898ee2187232446cb1085f1b905061114a565b600f8203610df0577f13e6d8fc88839ed76e182c2a779af5b2c0da9dd18c90427a644f7e148a6253b65f1b905061114a565b60108203610e22577f1eb16b057a477f4bc8f572ea6bee39561098f78f15bfb3699dcbb7bd8db618545f1b905061114a565b60118203610e54577f0da2cb16a1ceaabf1c16b838f7a9e3f2a3a3088d9e0a6debaa748114620696ea5f1b905061114a565b60128203610e86577f24a3b3d822420b14b5d8cb6c28a574f01e98ea9e940551d2ebd75cee12649f9d5f1b905061114a565b60138203610eb8577f198622acbd783d1b0d9064105b1fc8e4d8889de95c4c519b3f635809fe6afc055f1b905061114a565b60148203610eea577f29d7ed391256ccc3ea596c86e933b89ff339d25ea8ddced975ae2fe30b5296d45f1b905061114a565b60158203610f1c577f19be59f2f0413ce78c0c3703a3a5451b1d7f39629fa33abd11548a76065b29675f1b905061114a565b60168203610f4e577f1ff3f61797e538b70e619310d33f2a063e7eb59104e112e95738da1254dc34535f1b905061114a565b60178203610f80577f10c16ae9959cf8358980d9dd9616e48228737310a10e2b6b731c1a548f036c485f1b905061114a565b60188203610fb2577f0ba433a63174a90ac20992e75e3095496812b652685b5e1a2eae0b1bf4e8fcd15f1b905061114a565b60198203610fe4577f019ddb9df2bc98d987d0dfeca9d2b643deafab8f7036562e627c3667266a044c5f1b905061114a565b601a8203611016577f2d3c88b23175c5a5565db928414c66d1912b11acf974b2e644caaac04739ce995f1b905061114a565b601b8203611048577f2eab55f6ae4e66e32c5189eed5c470840863445760f5ed7e7b69b2a62600f3545f1b905061114a565b601c8203611079577e2df37a2642621802383cf952bf4dd1f32e05433beeb1fd41031fb7eace979d5f1b905061114a565b601d82036110ab577f104aeb41435db66c3e62feccc1d6f5d98d0a0ed75d1374db457cf462e3a1f4275f1b905061114a565b601e82036110dd577f1f3c6fd858e9a7d4b0d1f38e256a09d81d5a5e3c963987e2d4b814cfab7c6ebb5f1b905061114a565b601f820361110f577f2c7a07d20dff79d01fecedc1134284a8d08436606c93693b67e333f671bf69cc5f1b905061114a565b6040517f08c379a0000000000000000000000000000000000000000000000000000000008152600401611141906120e0565b60405180910390fd5b919050565b7f2fe54c60d3acabf3343a35b6eba15db4821b340f76e741e2249685ed4899af6c81565b7f000000000000000000000000000000000000000000000000000000000000000081565b6001602052805f5260405f205f915090505481565b6007602052805f5260405f205f915054906101000a900460ff1681565b600360049054906101000a900463ffffffff1681565b60055f8281526020019081526020015f205f9054906101000a900460ff161561123d576040517f08c379a00000000000000000000000000000000000000000000000000000000081526004016112349061216e565b60405180910390fd5b600160055f8381526020019081526020015f205f6101000a81548160ff0219169083151502179055505f61127082611517565b9050817f401999886e5f90a91b92a0bfb7e2d48f714651a4d1c929bb3a753525ba066b9182426040516112a492919061218c565b60405180910390a25050565b61134882826040516024016112c692919061221d565b6040516020818303038152906040527f319af333000000000000000000000000000000000000000000000000000000007bffffffffffffffffffffffffffffffffffffffffffffffffffffffff19166020820180517bffffffffffffffffffffffffffffffffffffffffffffffffffffffff8381831617835250505050611709565b5050565b60045f8681526020019081526020015f205f9054906101000a900460ff16156113aa576040517f08c379a00000000000000000000000000000000000000000000000000000000081526004016113a190612295565b60405180910390fd5b6113b38461085c565b6113f2576040517f08c379a00000000000000000000000000000000000000000000000000000000081526004016113e9906122fd565b60405180910390fd5b7f000000000000000000000000000000000000000000000000000000000000000073ffffffffffffffffffffffffffffffffffffffff1663f5c9d69e84848460405180604001604052808b5f1c81526020018a5f1c8152506040518563ffffffff1660e01b815260040161146994939291906124b6565b602060405180830381865afa158015611484573d5f803e3d5ffd5b505050506040513d601f19601f820116820180604052508101906114a89190612525565b6114e7576040517f08c379a00000000000000000000000000000000000000000000000000000000081526004016114de9061259a565b60405180910390fd5b600160045f8781526020019081526020015f205f6101000a81548160ff0219169083151502179055505050505050565b5f80600360049054906101000a900463ffffffff1690505f8054906101000a900463ffffffff16600261154a91906126e7565b63ffffffff168163ffffffff1603611597576040517f08c379a000000000000000000000000000000000000000000000000000000000815260040161158e90612785565b60405180910390fd5b5f8190505f8490505f805f5b5f8054906101000a900463ffffffff1663ffffffff168163ffffffff161015611664575f6002866115d491906127a3565b63ffffffff1603611614578392506115f18163ffffffff16610ad1565b91508360015f8363ffffffff1681526020019081526020015f2081905550611632565b60015f8263ffffffff1681526020019081526020015f205492508391505b611640835f1c835f1c61060b565b935060028561164f91906127d3565b9450808061165c90612803565b9150506115a3565b505f601e600160035f9054906101000a900463ffffffff16611686919061282e565b61169091906127a3565b90508060035f6101000a81548163ffffffff021916908363ffffffff1602179055508360025f8363ffffffff1681526020019081526020015f20819055506001866116db919061282e565b600360046101000a81548163ffffffff021916908363ffffffff160217905550859650505050505050919050565b5f6a636f6e736f6c652e6c6f6790508151602083015f808383865afa5050505050565b5f604051905090565b5f80fd5b5f819050919050565b61174b81611739565b8114611755575f80fd5b50565b5f8135905061176681611742565b92915050565b5f806040838503121561178257611781611735565b5b5f61178f85828601611758565b92505060206117a085828601611758565b9150509250929050565b5f819050919050565b6117bc816117aa565b81146117c6575f80fd5b50565b5f813590506117d7816117b3565b92915050565b5f602082840312156117f2576117f1611735565b5b5f6117ff848285016117c9565b91505092915050565b5f8115159050919050565b61181c81611808565b82525050565b5f6020820190506118355f830184611813565b92915050565b5f73ffffffffffffffffffffffffffffffffffffffff82169050919050565b5f819050919050565b5f61187d6118786118738461183b565b61185a565b61183b565b9050919050565b5f61188e82611863565b9050919050565b5f61189f82611884565b9050919050565b6118af81611895565b82525050565b5f6020820190506118c85f8301846118a6565b92915050565b6118d781611739565b82525050565b5f6020820190506118f05f8301846118ce565b92915050565b5f63ffffffff82169050919050565b61190e816118f6565b82525050565b5f6020820190506119275f830184611905565b92915050565b611936816117aa565b82525050565b5f60208201905061194f5f83018461192d565b92915050565b5f61195f8261183b565b9050919050565b61196f81611955565b82525050565b5f6020820190506119885f830184611966565b92915050565b5f602082840312156119a3576119a2611735565b5b5f6119b084828501611758565b91505092915050565b6119c281611955565b81146119cc575f80fd5b50565b5f813590506119dd816119b9565b92915050565b5f602082840312156119f8576119f7611735565b5b5f611a05848285016119cf565b91505092915050565b5f80fd5b5f601f19601f8301169050919050565b7f4e487b71000000000000000000000000000000000000000000000000000000005f52604160045260245ffd5b611a5882611a12565b810181811067ffffffffffffffff82111715611a7757611a76611a22565b5b80604052505050565b5f611a8961172c565b9050611a958282611a4f565b919050565b5f67ffffffffffffffff821115611ab457611ab3611a22565b5b602082029050919050565b5f80fd5b5f611ad5611ad084611a9a565b611a80565b90508060208402830185811115611aef57611aee611abf565b5b835b81811015611b185780611b048882611758565b845260208401935050602081019050611af1565b5050509392505050565b5f82601f830112611b3657611b35611a0e565b5b6002611b43848285611ac3565b91505092915050565b5f67ffffffffffffffff821115611b6657611b65611a22565b5b602082029050919050565b5f611b83611b7e84611b4c565b611a80565b90508060408402830185811115611b9d57611b9c611abf565b5b835b81811015611bc65780611bb28882611b22565b845260208401935050604081019050611b9f565b5050509392505050565b5f82601f830112611be457611be3611a0e565b5b6002611bf1848285611b71565b91505092915050565b5f805f805f806101608789031215611c1557611c14611735565b5b5f611c2289828a01611758565b9650506020611c3389828a01611758565b9550506040611c4489828a01611758565b9450506060611c5589828a01611b22565b93505060a0611c6689828a01611bd0565b925050610120611c7889828a01611b22565b9150509295509295509295565b5f611c8f82611884565b9050919050565b611c9f81611c85565b82525050565b5f602082019050611cb85f830184611c96565b92915050565b5f82825260208201905092915050565b7f596f7520617265206e6f7420612076616c696461746f722100000000000000005f82015250565b5f611d02601883611cbe565b9150611d0d82611cce565b602082019050919050565b5f6020820190508181035f830152611d2f81611cf6565b9050919050565b7f5468697320756e69717565206861736820697320616c726561647920757365645f8201527f2100000000000000000000000000000000000000000000000000000000000000602082015250565b5f611d90602183611cbe565b9150611d9b82611d36565b604082019050919050565b5f6020820190508181035f830152611dbd81611d84565b9050919050565b7f5f6c6566742073686f756c6420626520696e7369646520746865206669656c645f82015250565b5f611df8602083611cbe565b9150611e0382611dc4565b602082019050919050565b5f6020820190508181035f830152611e2581611dec565b9050919050565b7f5f72696768742073686f756c6420626520696e7369646520746865206669656c5f8201527f6400000000000000000000000000000000000000000000000000000000000000602082015250565b5f611e86602183611cbe565b9150611e9182611e2c565b604082019050919050565b5f6020820190508181035f830152611eb381611e7a565b9050919050565b5f819050919050565b5f611edd611ed8611ed384611eba565b61185a565b611739565b9050919050565b611eed81611ec3565b82525050565b5f606082019050611f065f8301866118ce565b611f1360208301856118ce565b611f206040830184611ee4565b949350505050565b5f81519050611f3681611742565b92915050565b5f8060408385031215611f5257611f51611735565b5b5f611f5f85828601611f28565b9250506020611f7085828601611f28565b9150509250929050565b7f4e487b71000000000000000000000000000000000000000000000000000000005f52601260045260245ffd5b7f4e487b71000000000000000000000000000000000000000000000000000000005f52601160045260245ffd5b5f611fde826118f6565b91505f8203611ff057611fef611fa7565b5b600182039050919050565b7f496e76616c6964206f7074696f6e2100000000000000000000000000000000005f82015250565b5f61202f600f83611cbe565b915061203a82611ffb565b602082019050919050565b5f6020820190508181035f83015261205c81612023565b9050919050565b5f61206d82611739565b915061207883611739565b92508282019050808211156120905761208f611fa7565b5b92915050565b7f496e646578206f7574206f6620626f756e6473000000000000000000000000005f82015250565b5f6120ca601383611cbe565b91506120d582612096565b602082019050919050565b5f6020820190508181035f8301526120f7816120be565b9050919050565b7f54686520636f6d6d69746d656e7420686173206265656e207375626d697474655f8201527f6400000000000000000000000000000000000000000000000000000000000000602082015250565b5f612158602183611cbe565b9150612163826120fe565b604082019050919050565b5f6020820190508181035f8301526121858161214c565b9050919050565b5f60408201905061219f5f830185611905565b6121ac60208301846118ce565b9392505050565b5f81519050919050565b5f5b838110156121da5780820151818401526020810190506121bf565b5f8484015250505050565b5f6121ef826121b3565b6121f98185611cbe565b93506122098185602086016121bd565b61221281611a12565b840191505092915050565b5f6040820190508181035f83015261223581856121e5565b90506122446020830184611966565b9392505050565b7f546865206e756c6c696669657220686173206265656e207375626d69747465645f82015250565b5f61227f602083611cbe565b915061228a8261224b565b602082019050919050565b5f6020820190508181035f8301526122ac81612273565b9050919050565b7f43616e6e6f742066696e6420796f7572206d65726b6c6520726f6f74000000005f82015250565b5f6122e7601c83611cbe565b91506122f2826122b3565b602082019050919050565b5f6020820190508181035f830152612314816122db565b9050919050565b5f60029050919050565b5f81905092915050565b5f819050919050565b61234181611739565b82525050565b5f6123528383612338565b60208301905092915050565b5f602082019050919050565b6123738161231b565b61237d8184612325565b92506123888261232f565b805f5b838110156123b857815161239f8782612347565b96506123aa8361235e565b92505060018101905061238b565b505050505050565b5f60029050919050565b5f81905092915050565b5f819050919050565b5f81905092915050565b6123f08161231b565b6123fa81846123dd565b92506124058261232f565b805f5b8381101561243557815161241c8782612347565b96506124278361235e565b925050600181019050612408565b505050505050565b5f61244883836123e7565b60408301905092915050565b5f602082019050919050565b612469816123c0565b61247381846123ca565b925061247e826123d4565b805f5b838110156124ae578151612495878261243d565b96506124a083612454565b925050600181019050612481565b505050505050565b5f610140820190506124ca5f83018761236a565b6124d76040830186612460565b6124e460c083018561236a565b6124f261010083018461236a565b95945050505050565b61250481611808565b811461250e575f80fd5b50565b5f8151905061251f816124fb565b92915050565b5f6020828403121561253a57612539611735565b5b5f61254784828501612511565b91505092915050565b7f496e76616c69642070726f6f66000000000000000000000000000000000000005f82015250565b5f612584600d83611cbe565b915061258f82612550565b602082019050919050565b5f6020820190508181035f8301526125b181612578565b9050919050565b5f8160011c9050919050565b5f808291508390505b600185111561260d578086048111156125e9576125e8611fa7565b5b60018516156125f85780820291505b8081029050612606856125b8565b94506125cd565b94509492505050565b5f8261262557600190506126e0565b81612632575f90506126e0565b8160018114612648576002811461265257612681565b60019150506126e0565b60ff84111561266457612663611fa7565b5b8360020a91508482111561267b5761267a611fa7565b5b506126e0565b5060208310610133831016604e8410600b84101617156126b65782820a9050838111156126b1576126b0611fa7565b5b6126e0565b6126c384848460016125c4565b925090508184048111156126da576126d9611fa7565b5b81810290505b9392505050565b5f6126f1826118f6565b91506126fc836118f6565b925061270d63ffffffff8484612616565b905092915050565b7f4d65726b6c6520747265652069732066756c6c2e204e6f206d6f7265206c65615f8201527f7665732063616e20626520616464656400000000000000000000000000000000602082015250565b5f61276f603083611cbe565b915061277a82612715565b604082019050919050565b5f6020820190508181035f83015261279c81612763565b9050919050565b5f6127ad826118f6565b91506127b8836118f6565b9250826127c8576127c7611f7a565b5b828206905092915050565b5f6127dd826118f6565b91506127e8836118f6565b9250826127f8576127f7611f7a565b5b828204905092915050565b5f61280d826118f6565b915063ffffffff820361282357612822611fa7565b5b600182019050919050565b5f612838826118f6565b9150612843836118f6565b9250828201905063ffffffff81111561285f5761285e611fa7565b5b9291505056fea264697066735822122038854e6db1e07dd7105256b550b453975728d673473ede6fb479022a02284c1964736f6c63430008150033",
  "immutableReferences": {
    "24": [
      {
        "length": 32,
        "start": 1751
      },
      {
        "length": 32,
        "start": 1966
      },
      {
        "length": 32,
        "start": 4469
      }
    ],
    "705": [
      {
        "length": 32,
        "start": 1458
      },
      {
        "length": 32,
        "start": 5108
      }
    ]
  },
  "source": "// SPDX-License-Identifier: MIT\npragma solidity ^0.8.17;\n\nimport \"./ZKTree.sol\";\nimport \"truffle/Console.sol\";\n\ncontract ZKTreeVote is ZKTree {\n    address public owner;\n    mapping(address => bool) public validators;\n    mapping(uint256 => bool) uniqueHashes;\n    uint numOptions;\n    mapping(uint => uint) optionCounter;\n\n    constructor(\n        uint32 _levels,\n        IHasher _hasher,\n        IVerifier _verifier,\n        uint _numOptions\n    ) ZKTree(_levels, _hasher, _verifier) {\n        owner = msg.sender;\n        numOptions = _numOptions;\n        for (uint i = 0; i <= numOptions; i++) optionCounter[i] = 0;\n    }\n\n    function registerValidator(address _validator) external {\n        validators[_validator] = true;\n        console.log(\"Validator\",_validator);\n    }\n\n    function registerCommitment(\n        uint256 _uniqueHash,\n        uint256 _commitment\n    ) external {\n        require(validators[msg.sender], \"You are not a validator!\");\n        require(!uniqueHashes[_uniqueHash],\"This unique hash is already used!\");\n        _commit(bytes32(_commitment));\n        uniqueHashes[_uniqueHash] = true;\n    }\n\n    function vote(\n        uint _option,\n        uint256 _nullifier,\n        uint256 _root,\n        uint[2] memory _proof_a,\n        uint[2][2] memory _proof_b,\n        uint[2] memory _proof_c\n    ) external {\n        require(_option <= numOptions, \"Invalid option!\");\n        _nullify(\n            bytes32(_nullifier),\n            bytes32(_root),\n            _proof_a,\n            _proof_b,\n            _proof_c\n        );\n        optionCounter[_option] = optionCounter[_option] + 1;\n    }\n\n    function getOptionCounter(uint _option) external view returns (uint) {\n        return optionCounter[_option];\n    }\n}",
  "sourcePath": "/Users/liqi/Documents/Project/routing_security/VRO/anonymous_voting/contracts/ZKTreeVote.sol",
  "compiler": {
    "name": "solc",
    "version": "0.8.21+commit.d9974bed.Emscripten.clang"
  },
  "schemaVersion": "3.4.16",
  "updatedAt": "2024-08-08T05:47:06.418Z",
  "networkType": "ethereum",
  "devdoc": {
    "kind": "dev",
    "methods": {
      "getLastRoot()": {
        "details": "Returns the last root"
      },
      "hashLeftRight(uint256,uint256)": {
        "details": "Hash 2 tree leaves, returns MiMC(_left, _right)"
      },
      "isKnownRoot(bytes32)": {
        "details": "Whether the root is present in the root history"
      },
      "zeros(uint256)": {
        "details": "provides Zero (Empty) elements for a MiMC MerkleTree. Up to 32 levels"
      }
    },
    "version": 1
  },
  "userdoc": {
    "kind": "user",
    "methods": {},
    "version": 1
  }
}