{
  "contractName": "ZKTree",
  "abi": [
    {
      "inputs": [
        {
          "internalType": "uint32",
          "name": "_levels",
          "type": "uint32"
        },
        {
          "internalType": "contract IHasher",
          "name": "_hasher",
          "type": "address"
        },
        {
          "internalType": "contract IVerifier",
          "name": "_verifier",
          "type": "address"
        }
      ],
      "stateMutability": "nonpayable",
      "type": "constructor"
    },
    {
      "anonymous": false,
      "inputs": [
        {
          "indexed": true,
          "internalType": "bytes32",
          "name": "commitment",
          "type": "bytes32"
        },
        {
          "indexed": false,
          "internalType": "uint32",
          "name": "leafIndex",
          "type": "uint32"
        },
        {
          "indexed": false,
          "internalType": "uint256",
          "name": "timestamp",
          "type": "uint256"
        }
      ],
      "name": "Commit",
      "type": "event"
    },
    {
      "inputs": [],
      "name": "FIELD_SIZE",
      "outputs": [
        {
          "internalType": "uint256",
          "name": "",
          "type": "uint256"
        }
      ],
      "stateMutability": "view",
      "type": "function",
      "constant": true
    },
    {
      "inputs": [],
      "name": "ROOT_HISTORY_SIZE",
      "outputs": [
        {
          "internalType": "uint32",
          "name": "",
          "type": "uint32"
        }
      ],
      "stateMutability": "view",
      "type": "function",
      "constant": true
    },
    {
      "inputs": [],
      "name": "ZERO_VALUE",
      "outputs": [
        {
          "internalType": "uint256",
          "name": "",
          "type": "uint256"
        }
      ],
      "stateMutability": "view",
      "type": "function",
      "constant": true
    },
    {
      "inputs": [
        {
          "internalType": "bytes32",
          "name": "",
          "type": "bytes32"
        }
      ],
      "name": "commitments",
      "outputs": [
        {
          "internalType": "bool",
          "name": "",
          "type": "bool"
        }
      ],
      "stateMutability": "view",
      "type": "function",
      "constant": true
    },
    {
      "inputs": [],
      "name": "currentRootIndex",
      "outputs": [
        {
          "internalType": "uint32",
          "name": "",
          "type": "uint32"
        }
      ],
      "stateMutability": "view",
      "type": "function",
      "constant": true
    },
    {
      "inputs": [
        {
          "internalType": "uint256",
          "name": "",
          "type": "uint256"
        }
      ],
      "name": "filledSubtrees",
      "outputs": [
        {
          "internalType": "bytes32",
          "name": "",
          "type": "bytes32"
        }
      ],
      "stateMutability": "view",
      "type": "function",
      "constant": true
    },
    {
      "inputs": [],
      "name": "getLastRoot",
      "outputs": [
        {
          "internalType": "bytes32",
          "name": "",
          "type": "bytes32"
        }
      ],
      "stateMutability": "view",
      "type": "function",
      "constant": true
    },
    {
      "inputs": [
        {
          "internalType": "uint256",
          "name": "_left",
          "type": "uint256"
        },
        {
          "internalType": "uint256",
          "name": "_right",
          "type": "uint256"
        }
      ],
      "name": "hashLeftRight",
      "outputs": [
        {
          "internalType": "bytes32",
          "name": "",
          "type": "bytes32"
        }
      ],
      "stateMutability": "view",
      "type": "function",
      "constant": true
    },
    {
      "inputs": [],
      "name": "hasher",
      "outputs": [
        {
          "internalType": "contract IHasher",
          "name": "",
          "type": "address"
        }
      ],
      "stateMutability": "view",
      "type": "function",
      "constant": true
    },
    {
      "inputs": [
        {
          "internalType": "bytes32",
          "name": "_root",
          "type": "bytes32"
        }
      ],
      "name": "isKnownRoot",
      "outputs": [
        {
          "internalType": "bool",
          "name": "",
          "type": "bool"
        }
      ],
      "stateMutability": "view",
      "type": "function",
      "constant": true
    },
    {
      "inputs": [],
      "name": "levels",
      "outputs": [
        {
          "internalType": "uint32",
          "name": "",
          "type": "uint32"
        }
      ],
      "stateMutability": "view",
      "type": "function",
      "constant": true
    },
    {
      "inputs": [],
      "name": "nextIndex",
      "outputs": [
        {
          "internalType": "uint32",
          "name": "",
          "type": "uint32"
        }
      ],
      "stateMutability": "view",
      "type": "function",
      "constant": true
    },
    {
      "inputs": [
        {
          "internalType": "bytes32",
          "name": "",
          "type": "bytes32"
        }
      ],
      "name": "nullifiers",
      "outputs": [
        {
          "internalType": "bool",
          "name": "",
          "type": "bool"
        }
      ],
      "stateMutability": "view",
      "type": "function",
      "constant": true
    },
    {
      "inputs": [
        {
          "internalType": "uint256",
          "name": "",
          "type": "uint256"
        }
      ],
      "name": "roots",
      "outputs": [
        {
          "internalType": "bytes32",
          "name": "",
          "type": "bytes32"
        }
      ],
      "stateMutability": "view",
      "type": "function",
      "constant": true
    },
    {
      "inputs": [],
      "name": "verifier",
      "outputs": [
        {
          "internalType": "contract IVerifier",
          "name": "",
          "type": "address"
        }
      ],
      "stateMutability": "view",
      "type": "function",
      "constant": true
    },
    {
      "inputs": [
        {
          "internalType": "uint256",
          "name": "i",
          "type": "uint256"
        }
      ],
      "name": "zeros",
      "outputs": [
        {
          "internalType": "bytes32",
          "name": "",
          "type": "bytes32"
        }
      ],
      "stateMutability": "pure",
      "type": "function",
      "constant": true
    }
  ],
  "bytecode": "0x60c06040525f60035f6101000a81548163ffffffff021916908363ffffffff1602179055505f600360046101000a81548163ffffffff021916908363ffffffff16021790555034801562000051575f80fd5b5060405162002029380380620020298339818101604052810190620000779190620009f4565b82825f8263ffffffff1611620000c4576040517f08c379a0000000000000000000000000000000000000000000000000000000008152600401620000bb9062000ad1565b60405180910390fd5b60208263ffffffff161062000110576040517f08c379a0000000000000000000000000000000000000000000000000000000008152600401620001079062000b3f565b60405180910390fd5b815f806101000a81548163ffffffff021916908363ffffffff1602179055508073ffffffffffffffffffffffffffffffffffffffff1660808173ffffffffffffffffffffffffffffffffffffffff16815250505f5b8263ffffffff168163ffffffff161015620001c257620001918163ffffffff166200023c60201b60201c565b60015f8363ffffffff1681526020019081526020015f20819055508080620001b99062000b8c565b91505062000165565b50620001e8600183620001d6919062000bbc565b63ffffffff166200023c60201b60201c565b60025f8081526020019081526020015f208190555050508073ffffffffffffffffffffffffffffffffffffffff1660a08173ffffffffffffffffffffffffffffffffffffffff168152505050505062000c68565b5f80820362000270577f2fe54c60d3acabf3343a35b6eba15db4821b340f76e741e2249685ed4899af6c5f1b9050620008f7565b60018203620002a4577f256a6135777eee2fd26f54b8b7037a25439d5235caee224154186d2b8a52e31d5f1b9050620008f7565b60028203620002d8577f1151949895e82ab19924de92c40a3d6f7bcb60d92b00504b8199613683f0c2005f1b9050620008f7565b600382036200030c577f20121ee811489ff8d61f09fb89e313f14959a0f28bb428a20dba6b0b068b3bdb5f1b9050620008f7565b6004820362000340577f0a89ca6ffa14cc462cfedb842c30ed221a50a3d6bf022a6a57dc82ab24c157c95f1b9050620008f7565b6005820362000374577f24ca05c2b5cd42e890d6be94c68d0689f4f21c9cec9c0f13fe41d566dfb549595f1b9050620008f7565b60068203620003a8577f1ccb97c932565a92c60156bdba2d08f3bf1377464e025cee765679e604a7315c5f1b9050620008f7565b60078203620003dc577f19156fbd7d1a8bf5cba8909367de1b624534ebab4f0f79e003bccdd1b182bdb45f1b9050620008f7565b6008820362000410577f261af8c1f0912e465744641409f622d466c3920ac6e5ff37e36604cb11dfff805f1b9050620008f7565b6009820362000443577e58459724ff6ca5a1652fcbc3e82b93895cf08e975b19beab3f54c217d1c0075f1b9050620008f7565b600a820362000477577f1f04ef20dee48d39984d8eabe768a70eafa6310ad20849d4573c3c40c2ad1e305f1b9050620008f7565b600b8203620004ab577f1bea3dec5dab51567ce7e200a30f7ba6d4276aeaa53e2686f962a46c66d511e55f1b9050620008f7565b600c8203620004df577f0ee0f941e2da4b9e31c3ca97a40d8fa9ce68d97c084177071b3cb46cd3372f0f5f1b9050620008f7565b600d820362000513577f1ca9503e8935884501bbaf20be14eb4c46b89772c97b96e3b2ebf3a36a948bbd5f1b9050620008f7565b600e820362000547577f133a80e30697cd55d8f7d4b0965b7be24057ba5dc3da898ee2187232446cb1085f1b9050620008f7565b600f82036200057b577f13e6d8fc88839ed76e182c2a779af5b2c0da9dd18c90427a644f7e148a6253b65f1b9050620008f7565b60108203620005af577f1eb16b057a477f4bc8f572ea6bee39561098f78f15bfb3699dcbb7bd8db618545f1b9050620008f7565b60118203620005e3577f0da2cb16a1ceaabf1c16b838f7a9e3f2a3a3088d9e0a6debaa748114620696ea5f1b9050620008f7565b6012820362000617577f24a3b3d822420b14b5d8cb6c28a574f01e98ea9e940551d2ebd75cee12649f9d5f1b9050620008f7565b601382036200064b577f198622acbd783d1b0d9064105b1fc8e4d8889de95c4c519b3f635809fe6afc055f1b9050620008f7565b601482036200067f577f29d7ed391256ccc3ea596c86e933b89ff339d25ea8ddced975ae2fe30b5296d45f1b9050620008f7565b60158203620006b3577f19be59f2f0413ce78c0c3703a3a5451b1d7f39629fa33abd11548a76065b29675f1b9050620008f7565b60168203620006e7577f1ff3f61797e538b70e619310d33f2a063e7eb59104e112e95738da1254dc34535f1b9050620008f7565b601782036200071b577f10c16ae9959cf8358980d9dd9616e48228737310a10e2b6b731c1a548f036c485f1b9050620008f7565b601882036200074f577f0ba433a63174a90ac20992e75e3095496812b652685b5e1a2eae0b1bf4e8fcd15f1b9050620008f7565b6019820362000783577f019ddb9df2bc98d987d0dfeca9d2b643deafab8f7036562e627c3667266a044c5f1b9050620008f7565b601a8203620007b7577f2d3c88b23175c5a5565db928414c66d1912b11acf974b2e644caaac04739ce995f1b9050620008f7565b601b8203620007eb577f2eab55f6ae4e66e32c5189eed5c470840863445760f5ed7e7b69b2a62600f3545f1b9050620008f7565b601c82036200081e577e2df37a2642621802383cf952bf4dd1f32e05433beeb1fd41031fb7eace979d5f1b9050620008f7565b601d820362000852577f104aeb41435db66c3e62feccc1d6f5d98d0a0ed75d1374db457cf462e3a1f4275f1b9050620008f7565b601e820362000886577f1f3c6fd858e9a7d4b0d1f38e256a09d81d5a5e3c963987e2d4b814cfab7c6ebb5f1b9050620008f7565b601f8203620008ba577f2c7a07d20dff79d01fecedc1134284a8d08436606c93693b67e333f671bf69cc5f1b9050620008f7565b6040517f08c379a0000000000000000000000000000000000000000000000000000000008152600401620008ee9062000c48565b60405180910390fd5b919050565b5f80fd5b5f63ffffffff82169050919050565b6200091a8162000900565b811462000925575f80fd5b50565b5f8151905062000938816200090f565b92915050565b5f73ffffffffffffffffffffffffffffffffffffffff82169050919050565b5f62000969826200093e565b9050919050565b5f6200097c826200095d565b9050919050565b6200098e8162000970565b811462000999575f80fd5b50565b5f81519050620009ac8162000983565b92915050565b5f620009be826200095d565b9050919050565b620009d081620009b2565b8114620009db575f80fd5b50565b5f81519050620009ee81620009c5565b92915050565b5f805f6060848603121562000a0e5762000a0d620008fc565b5b5f62000a1d8682870162000928565b935050602062000a30868287016200099c565b925050604062000a4386828701620009de565b9150509250925092565b5f82825260208201905092915050565b7f5f6c6576656c732073686f756c642062652067726561746572207468616e207a5f8201527f65726f0000000000000000000000000000000000000000000000000000000000602082015250565b5f62000ab960238362000a4d565b915062000ac68262000a5d565b604082019050919050565b5f6020820190508181035f83015262000aea8162000aab565b9050919050565b7f5f6c6576656c732073686f756c64206265206c657373207468616e20333200005f82015250565b5f62000b27601e8362000a4d565b915062000b348262000af1565b602082019050919050565b5f6020820190508181035f83015262000b588162000b19565b9050919050565b7f4e487b71000000000000000000000000000000000000000000000000000000005f52601160045260245ffd5b5f62000b988262000900565b915063ffffffff820362000bb15762000bb062000b5f565b5b600182019050919050565b5f62000bc88262000900565b915062000bd58362000900565b9250828203905063ffffffff81111562000bf45762000bf362000b5f565b5b92915050565b7f496e646578206f7574206f6620626f756e6473000000000000000000000000005f82015250565b5f62000c3060138362000a4d565b915062000c3d8262000bfa565b602082019050919050565b5f6020820190508181035f83015262000c618162000c22565b9050919050565b60805160a05161139162000c985f395f61037f01525f81816104a40152818161057b0152610ddb01526113915ff3fe608060405234801561000f575f80fd5b50600436106100fe575f3560e01c8063ba70f75711610095578063ec73295911610064578063ec732959146102d6578063ed33639f146102f4578063f178e47c14610312578063fc7e9c6f14610342576100fe565b8063ba70f7571461023a578063c2b40ae414610258578063cd87a3b414610288578063e8295588146102a6576100fe565b80635bb93995116100d15780635bb939951461018c5780636d9833e3146101bc578063839df945146101ec57806390eeb02b1461021c576100fe565b80632997e86b146101025780632b7ac3f314610132578063414a37ba146101505780634ecf518b1461016e575b5f80fd5b61011c60048036038101906101179190610e5f565b610360565b6040516101299190610ea4565b60405180910390f35b61013a61037d565b6040516101479190610f37565b60405180910390f35b6101586103a1565b6040516101659190610f68565b60405180910390f35b6101766103c5565b6040516101839190610f9f565b60405180910390f35b6101a660048036038101906101a19190610fe2565b6103d8565b6040516101b3919061102f565b60405180910390f35b6101d660048036038101906101d19190610e5f565b610629565b6040516101e39190610ea4565b60405180910390f35b61020660048036038101906102019190610e5f565b6106bc565b6040516102139190610ea4565b60405180910390f35b6102246106d9565b6040516102319190610f9f565b60405180910390f35b6102426106ee565b60405161024f919061102f565b60405180910390f35b610272600480360381019061026d9190611048565b61071d565b60405161027f919061102f565b60405180910390f35b610290610732565b60405161029d9190610f9f565b60405180910390f35b6102c060048036038101906102bb9190611048565b610737565b6040516102cd919061102f565b60405180910390f35b6102de610db5565b6040516102eb9190610f68565b60405180910390f35b6102fc610dd9565b6040516103099190611093565b60405180910390f35b61032c60048036038101906103279190611048565b610dfd565b604051610339919061102f565b60405180910390f35b61034a610e12565b6040516103579190610f9f565b60405180910390f35b6004602052805f5260405f205f915054906101000a900460ff1681565b7f000000000000000000000000000000000000000000000000000000000000000081565b7f30644e72e131a029b85045b68181585d2833e84879b9709143e1f593f000000181565b5f8054906101000a900463ffffffff1681565b5f7f30644e72e131a029b85045b68181585d2833e84879b9709143e1f593f0000001831061043b576040517f08c379a000000000000000000000000000000000000000000000000000000000815260040161043290611106565b60405180910390fd5b7f30644e72e131a029b85045b68181585d2833e84879b9709143e1f593f0000001821061049d576040517f08c379a000000000000000000000000000000000000000000000000000000000815260040161049490611194565b60405180910390fd5b5f8390505f7f000000000000000000000000000000000000000000000000000000000000000073ffffffffffffffffffffffffffffffffffffffff16633f1a118783835f6040518463ffffffff1660e01b81526004016104ff939291906111eb565b6040805180830381865afa158015610519573d5f803e3d5ffd5b505050506040513d601f19601f8201168201806040525081019061053d9190611234565b80925081935050507f30644e72e131a029b85045b68181585d2833e84879b9709143e1f593f00000018061057457610573611272565b5b84830891507f000000000000000000000000000000000000000000000000000000000000000073ffffffffffffffffffffffffffffffffffffffff16633f1a118783835f6040518463ffffffff1660e01b81526004016105d6939291906111eb565b6040805180830381865afa1580156105f0573d5f803e3d5ffd5b505050506040513d601f19601f820116820180604052508101906106149190611234565b8092508193505050815f1b9250505092915050565b5f805f1b820361063b575f90506106b7565b5f60035f9054906101000a900463ffffffff1690505f8190505b60025f8263ffffffff1681526020019081526020015f2054840361067e576001925050506106b7565b5f8163ffffffff160361069057601e90505b808061069b906112cc565b9150508163ffffffff168163ffffffff1603610655575f925050505b919050565b6005602052805f5260405f205f915054906101000a900460ff1681565b60035f9054906101000a900463ffffffff1681565b5f60025f60035f9054906101000a900463ffffffff1663ffffffff1681526020019081526020015f2054905090565b6002602052805f5260405f205f915090505481565b601e81565b5f808203610769577f2fe54c60d3acabf3343a35b6eba15db4821b340f76e741e2249685ed4899af6c5f1b9050610db0565b6001820361079b577f256a6135777eee2fd26f54b8b7037a25439d5235caee224154186d2b8a52e31d5f1b9050610db0565b600282036107cd577f1151949895e82ab19924de92c40a3d6f7bcb60d92b00504b8199613683f0c2005f1b9050610db0565b600382036107ff577f20121ee811489ff8d61f09fb89e313f14959a0f28bb428a20dba6b0b068b3bdb5f1b9050610db0565b60048203610831577f0a89ca6ffa14cc462cfedb842c30ed221a50a3d6bf022a6a57dc82ab24c157c95f1b9050610db0565b60058203610863577f24ca05c2b5cd42e890d6be94c68d0689f4f21c9cec9c0f13fe41d566dfb549595f1b9050610db0565b60068203610895577f1ccb97c932565a92c60156bdba2d08f3bf1377464e025cee765679e604a7315c5f1b9050610db0565b600782036108c7577f19156fbd7d1a8bf5cba8909367de1b624534ebab4f0f79e003bccdd1b182bdb45f1b9050610db0565b600882036108f9577f261af8c1f0912e465744641409f622d466c3920ac6e5ff37e36604cb11dfff805f1b9050610db0565b6009820361092a577e58459724ff6ca5a1652fcbc3e82b93895cf08e975b19beab3f54c217d1c0075f1b9050610db0565b600a820361095c577f1f04ef20dee48d39984d8eabe768a70eafa6310ad20849d4573c3c40c2ad1e305f1b9050610db0565b600b820361098e577f1bea3dec5dab51567ce7e200a30f7ba6d4276aeaa53e2686f962a46c66d511e55f1b9050610db0565b600c82036109c0577f0ee0f941e2da4b9e31c3ca97a40d8fa9ce68d97c084177071b3cb46cd3372f0f5f1b9050610db0565b600d82036109f2577f1ca9503e8935884501bbaf20be14eb4c46b89772c97b96e3b2ebf3a36a948bbd5f1b9050610db0565b600e8203610a24577f133a80e30697cd55d8f7d4b0965b7be24057ba5dc3da898ee2187232446cb1085f1b9050610db0565b600f8203610a56577f13e6d8fc88839ed76e182c2a779af5b2c0da9dd18c90427a644f7e148a6253b65f1b9050610db0565b60108203610a88577f1eb16b057a477f4bc8f572ea6bee39561098f78f15bfb3699dcbb7bd8db618545f1b9050610db0565b60118203610aba577f0da2cb16a1ceaabf1c16b838f7a9e3f2a3a3088d9e0a6debaa748114620696ea5f1b9050610db0565b60128203610aec577f24a3b3d822420b14b5d8cb6c28a574f01e98ea9e940551d2ebd75cee12649f9d5f1b9050610db0565b60138203610b1e577f198622acbd783d1b0d9064105b1fc8e4d8889de95c4c519b3f635809fe6afc055f1b9050610db0565b60148203610b50577f29d7ed391256ccc3ea596c86e933b89ff339d25ea8ddced975ae2fe30b5296d45f1b9050610db0565b60158203610b82577f19be59f2f0413ce78c0c3703a3a5451b1d7f39629fa33abd11548a76065b29675f1b9050610db0565b60168203610bb4577f1ff3f61797e538b70e619310d33f2a063e7eb59104e112e95738da1254dc34535f1b9050610db0565b60178203610be6577f10c16ae9959cf8358980d9dd9616e48228737310a10e2b6b731c1a548f036c485f1b9050610db0565b60188203610c18577f0ba433a63174a90ac20992e75e3095496812b652685b5e1a2eae0b1bf4e8fcd15f1b9050610db0565b60198203610c4a577f019ddb9df2bc98d987d0dfeca9d2b643deafab8f7036562e627c3667266a044c5f1b9050610db0565b601a8203610c7c577f2d3c88b23175c5a5565db928414c66d1912b11acf974b2e644caaac04739ce995f1b9050610db0565b601b8203610cae577f2eab55f6ae4e66e32c5189eed5c470840863445760f5ed7e7b69b2a62600f3545f1b9050610db0565b601c8203610cdf577e2df37a2642621802383cf952bf4dd1f32e05433beeb1fd41031fb7eace979d5f1b9050610db0565b601d8203610d11577f104aeb41435db66c3e62feccc1d6f5d98d0a0ed75d1374db457cf462e3a1f4275f1b9050610db0565b601e8203610d43577f1f3c6fd858e9a7d4b0d1f38e256a09d81d5a5e3c963987e2d4b814cfab7c6ebb5f1b9050610db0565b601f8203610d75577f2c7a07d20dff79d01fecedc1134284a8d08436606c93693b67e333f671bf69cc5f1b9050610db0565b6040517f08c379a0000000000000000000000000000000000000000000000000000000008152600401610da79061133d565b60405180910390fd5b919050565b7f2fe54c60d3acabf3343a35b6eba15db4821b340f76e741e2249685ed4899af6c81565b7f000000000000000000000000000000000000000000000000000000000000000081565b6001602052805f5260405f205f915090505481565b600360049054906101000a900463ffffffff1681565b5f80fd5b5f819050919050565b610e3e81610e2c565b8114610e48575f80fd5b50565b5f81359050610e5981610e35565b92915050565b5f60208284031215610e7457610e73610e28565b5b5f610e8184828501610e4b565b91505092915050565b5f8115159050919050565b610e9e81610e8a565b82525050565b5f602082019050610eb75f830184610e95565b92915050565b5f73ffffffffffffffffffffffffffffffffffffffff82169050919050565b5f819050919050565b5f610eff610efa610ef584610ebd565b610edc565b610ebd565b9050919050565b5f610f1082610ee5565b9050919050565b5f610f2182610f06565b9050919050565b610f3181610f17565b82525050565b5f602082019050610f4a5f830184610f28565b92915050565b5f819050919050565b610f6281610f50565b82525050565b5f602082019050610f7b5f830184610f59565b92915050565b5f63ffffffff82169050919050565b610f9981610f81565b82525050565b5f602082019050610fb25f830184610f90565b92915050565b610fc181610f50565b8114610fcb575f80fd5b50565b5f81359050610fdc81610fb8565b92915050565b5f8060408385031215610ff857610ff7610e28565b5b5f61100585828601610fce565b925050602061101685828601610fce565b9150509250929050565b61102981610e2c565b82525050565b5f6020820190506110425f830184611020565b92915050565b5f6020828403121561105d5761105c610e28565b5b5f61106a84828501610fce565b91505092915050565b5f61107d82610f06565b9050919050565b61108d81611073565b82525050565b5f6020820190506110a65f830184611084565b92915050565b5f82825260208201905092915050565b7f5f6c6566742073686f756c6420626520696e7369646520746865206669656c645f82015250565b5f6110f06020836110ac565b91506110fb826110bc565b602082019050919050565b5f6020820190508181035f83015261111d816110e4565b9050919050565b7f5f72696768742073686f756c6420626520696e7369646520746865206669656c5f8201527f6400000000000000000000000000000000000000000000000000000000000000602082015250565b5f61117e6021836110ac565b915061118982611124565b604082019050919050565b5f6020820190508181035f8301526111ab81611172565b9050919050565b5f819050919050565b5f6111d56111d06111cb846111b2565b610edc565b610f50565b9050919050565b6111e5816111bb565b82525050565b5f6060820190506111fe5f830186610f59565b61120b6020830185610f59565b61121860408301846111dc565b949350505050565b5f8151905061122e81610fb8565b92915050565b5f806040838503121561124a57611249610e28565b5b5f61125785828601611220565b925050602061126885828601611220565b9150509250929050565b7f4e487b71000000000000000000000000000000000000000000000000000000005f52601260045260245ffd5b7f4e487b71000000000000000000000000000000000000000000000000000000005f52601160045260245ffd5b5f6112d682610f81565b91505f82036112e8576112e761129f565b5b600182039050919050565b7f496e646578206f7574206f6620626f756e6473000000000000000000000000005f82015250565b5f6113276013836110ac565b9150611332826112f3565b602082019050919050565b5f6020820190508181035f8301526113548161131b565b905091905056fea2646970667358221220013098ed62b4d4b740c80d236a647f909fa504eaa331d2752ad4e7652e53c83064736f6c63430008150033",
  "immutableReferences": {
    "24": [
      {
        "length": 32,
        "start": 1188
      },
      {
        "length": 32,
        "start": 1403
      },
      {
        "length": 32,
        "start": 3547
      }
    ],
    "705": [
      {
        "length": 32,
        "start": 895
      }
    ]
  },
  "source": "// based on https://github.com/tornadocash/tornado-core/blob/master/contracts/Tornado.sol\n// SPDX-License-Identifier: MIT\npragma solidity ^0.8.17;\n\nimport \"./MerkleTreeWithHistory.sol\";\n\ninterface IVerifier {\n    function verifyProof(\n        uint[2] memory a,\n        uint[2][2] memory b,\n        uint[2] memory c,\n        uint[2] memory input\n    ) external pure returns (bool r);\n}\n\ncontract ZKTree is MerkleTreeWithHistory {\n    mapping(bytes32 => bool) public nullifiers;\n    mapping(bytes32 => bool) public commitments;\n\n    IVerifier public immutable verifier;\n\n    event Commit(\n        bytes32 indexed commitment,\n        uint32 leafIndex,\n        uint256 timestamp\n    );\n\n    constructor(\n        uint32 _levels,\n        IHasher _hasher,\n        IVerifier _verifier\n    ) MerkleTreeWithHistory(_levels, _hasher) {\n        verifier = _verifier;\n    }\n\n    function _commit(bytes32 _commitment) internal {\n        require(!commitments[_commitment], \"The commitment has been submitted\");\n\n        commitments[_commitment] = true;\n        uint32 insertedIndex = _insert(_commitment);\n        emit Commit(_commitment, insertedIndex, block.timestamp);\n    }\n\n    function _nullify(\n        bytes32 _nullifier,\n        bytes32 _root,\n        uint[2] memory _proof_a,\n        uint[2][2] memory _proof_b,\n        uint[2] memory _proof_c\n    ) internal {\n        require(!nullifiers[_nullifier], \"The nullifier has been submitted\");\n        require(isKnownRoot(_root), \"Cannot find your merkle root\");\n        require(\n            verifier.verifyProof(\n                _proof_a,\n                _proof_b,\n                _proof_c,\n                [uint256(_nullifier), uint256(_root)]\n            ),\n            \"Invalid proof\"\n        );\n\n        nullifiers[_nullifier] = true;        \n    }\n}",
  "sourcePath": "/Users/liqi/Documents/Project/routing_security/VRO/anonymous_voting/contracts/ZKTree.sol",
  "compiler": {
    "name": "solc",
    "version": "0.8.21+commit.d9974bed.Emscripten.clang"
  },
  "schemaVersion": "3.4.16",
  "updatedAt": "2024-08-08T05:47:06.414Z",
  "networkType": "ethereum",
  "devdoc": {
    "kind": "dev",
    "methods": {
      "getLastRoot()": {
        "details": "Returns the last root"
      },
      "hashLeftRight(uint256,uint256)": {
        "details": "Hash 2 tree leaves, returns MiMC(_left, _right)"
      },
      "isKnownRoot(bytes32)": {
        "details": "Whether the root is present in the root history"
      },
      "zeros(uint256)": {
        "details": "provides Zero (Empty) elements for a MiMC MerkleTree. Up to 32 levels"
      }
    },
    "version": 1
  },
  "userdoc": {
    "kind": "user",
    "methods": {},
    "version": 1
  }
}